{
  "_format": "hh-sol-artifact-1",
  "contractName": "MyGame",
  "sourceName": "contracts/MyGame.sol",
  "abi": [
    {
      "inputs": [
        {
          "internalType": "string[]",
          "name": "charName",
          "type": "string[]"
        },
        {
          "internalType": "string[]",
          "name": "charImage",
          "type": "string[]"
        },
        {
          "internalType": "uint256[]",
          "name": "charHp",
          "type": "uint256[]"
        },
        {
          "internalType": "uint256[]",
          "name": "charMaxHp",
          "type": "uint256[]"
        },
        {
          "internalType": "uint256[]",
          "name": "charAttackDamage",
          "type": "uint256[]"
        },
        {
          "internalType": "string",
          "name": "villanName",
          "type": "string"
        },
        {
          "internalType": "string",
          "name": "villanImageURI",
          "type": "string"
        },
        {
          "internalType": "uint256",
          "name": "villanHp",
          "type": "uint256"
        },
        {
          "internalType": "uint256",
          "name": "villanMaxHp",
          "type": "uint256"
        },
        {
          "internalType": "uint256",
          "name": "villanAttackDamage",
          "type": "uint256"
        }
      ],
      "stateMutability": "nonpayable",
      "type": "constructor"
    },
    {
      "anonymous": false,
      "inputs": [
        {
          "indexed": true,
          "internalType": "address",
          "name": "owner",
          "type": "address"
        },
        {
          "indexed": true,
          "internalType": "address",
          "name": "approved",
          "type": "address"
        },
        {
          "indexed": true,
          "internalType": "uint256",
          "name": "tokenId",
          "type": "uint256"
        }
      ],
      "name": "Approval",
      "type": "event"
    },
    {
      "anonymous": false,
      "inputs": [
        {
          "indexed": true,
          "internalType": "address",
          "name": "owner",
          "type": "address"
        },
        {
          "indexed": true,
          "internalType": "address",
          "name": "operator",
          "type": "address"
        },
        {
          "indexed": false,
          "internalType": "bool",
          "name": "approved",
          "type": "bool"
        }
      ],
      "name": "ApprovalForAll",
      "type": "event"
    },
    {
      "anonymous": false,
      "inputs": [
        {
          "indexed": false,
          "internalType": "address",
          "name": "sender",
          "type": "address"
        },
        {
          "indexed": false,
          "internalType": "uint256",
          "name": "newVillanHp",
          "type": "uint256"
        },
        {
          "indexed": false,
          "internalType": "uint256",
          "name": "newPlayerHp",
          "type": "uint256"
        }
      ],
      "name": "AttackComplete",
      "type": "event"
    },
    {
      "anonymous": false,
      "inputs": [
        {
          "indexed": false,
          "internalType": "address",
          "name": "sender",
          "type": "address"
        },
        {
          "indexed": false,
          "internalType": "uint256",
          "name": "tokenId",
          "type": "uint256"
        },
        {
          "indexed": false,
          "internalType": "uint256",
          "name": "characterIndex",
          "type": "uint256"
        }
      ],
      "name": "CharacterNFTMinted",
      "type": "event"
    },
    {
      "anonymous": false,
      "inputs": [
        {
          "indexed": true,
          "internalType": "address",
          "name": "from",
          "type": "address"
        },
        {
          "indexed": true,
          "internalType": "address",
          "name": "to",
          "type": "address"
        },
        {
          "indexed": true,
          "internalType": "uint256",
          "name": "tokenId",
          "type": "uint256"
        }
      ],
      "name": "Transfer",
      "type": "event"
    },
    {
      "inputs": [
        {
          "internalType": "address",
          "name": "to",
          "type": "address"
        },
        {
          "internalType": "uint256",
          "name": "tokenId",
          "type": "uint256"
        }
      ],
      "name": "approve",
      "outputs": [],
      "stateMutability": "nonpayable",
      "type": "function"
    },
    {
      "inputs": [],
      "name": "attackVillan",
      "outputs": [],
      "stateMutability": "nonpayable",
      "type": "function"
    },
    {
      "inputs": [
        {
          "internalType": "address",
          "name": "owner",
          "type": "address"
        }
      ],
      "name": "balanceOf",
      "outputs": [
        {
          "internalType": "uint256",
          "name": "",
          "type": "uint256"
        }
      ],
      "stateMutability": "view",
      "type": "function"
    },
    {
      "inputs": [],
      "name": "checkIfUserHasNFT",
      "outputs": [
        {
          "components": [
            {
              "internalType": "uint256",
              "name": "characterIndex",
              "type": "uint256"
            },
            {
              "internalType": "string",
              "name": "name",
              "type": "string"
            },
            {
              "internalType": "string",
              "name": "imageURI",
              "type": "string"
            },
            {
              "internalType": "uint256",
              "name": "hp",
              "type": "uint256"
            },
            {
              "internalType": "uint256",
              "name": "maxHp",
              "type": "uint256"
            },
            {
              "internalType": "uint256",
              "name": "attackDamage",
              "type": "uint256"
            }
          ],
          "internalType": "struct MyGame.CharacterAttribute",
          "name": "",
          "type": "tuple"
        }
      ],
      "stateMutability": "view",
      "type": "function"
    },
    {
      "inputs": [],
      "name": "getAllDefaultCharacters",
      "outputs": [
        {
          "components": [
            {
              "internalType": "uint256",
              "name": "characterIndex",
              "type": "uint256"
            },
            {
              "internalType": "string",
              "name": "name",
              "type": "string"
            },
            {
              "internalType": "string",
              "name": "imageURI",
              "type": "string"
            },
            {
              "internalType": "uint256",
              "name": "hp",
              "type": "uint256"
            },
            {
              "internalType": "uint256",
              "name": "maxHp",
              "type": "uint256"
            },
            {
              "internalType": "uint256",
              "name": "attackDamage",
              "type": "uint256"
            }
          ],
          "internalType": "struct MyGame.CharacterAttribute[]",
          "name": "",
          "type": "tuple[]"
        }
      ],
      "stateMutability": "view",
      "type": "function"
    },
    {
      "inputs": [
        {
          "internalType": "uint256",
          "name": "tokenId",
          "type": "uint256"
        }
      ],
      "name": "getApproved",
      "outputs": [
        {
          "internalType": "address",
          "name": "",
          "type": "address"
        }
      ],
      "stateMutability": "view",
      "type": "function"
    },
    {
      "inputs": [],
      "name": "getVillan",
      "outputs": [
        {
          "components": [
            {
              "internalType": "string",
              "name": "name",
              "type": "string"
            },
            {
              "internalType": "string",
              "name": "imageURI",
              "type": "string"
            },
            {
              "internalType": "uint256",
              "name": "hp",
              "type": "uint256"
            },
            {
              "internalType": "uint256",
              "name": "maxHp",
              "type": "uint256"
            },
            {
              "internalType": "uint256",
              "name": "attactDamage",
              "type": "uint256"
            }
          ],
          "internalType": "struct MyGame.Villan",
          "name": "",
          "type": "tuple"
        }
      ],
      "stateMutability": "view",
      "type": "function"
    },
    {
      "inputs": [
        {
          "internalType": "address",
          "name": "owner",
          "type": "address"
        },
        {
          "internalType": "address",
          "name": "operator",
          "type": "address"
        }
      ],
      "name": "isApprovedForAll",
      "outputs": [
        {
          "internalType": "bool",
          "name": "",
          "type": "bool"
        }
      ],
      "stateMutability": "view",
      "type": "function"
    },
    {
      "inputs": [
        {
          "internalType": "uint256",
          "name": "_characterIndex",
          "type": "uint256"
        }
      ],
      "name": "mintCharacterNFT",
      "outputs": [],
      "stateMutability": "nonpayable",
      "type": "function"
    },
    {
      "inputs": [],
      "name": "name",
      "outputs": [
        {
          "internalType": "string",
          "name": "",
          "type": "string"
        }
      ],
      "stateMutability": "view",
      "type": "function"
    },
    {
      "inputs": [
        {
          "internalType": "uint256",
          "name": "",
          "type": "uint256"
        }
      ],
      "name": "nftHolderAttributes",
      "outputs": [
        {
          "internalType": "uint256",
          "name": "characterIndex",
          "type": "uint256"
        },
        {
          "internalType": "string",
          "name": "name",
          "type": "string"
        },
        {
          "internalType": "string",
          "name": "imageURI",
          "type": "string"
        },
        {
          "internalType": "uint256",
          "name": "hp",
          "type": "uint256"
        },
        {
          "internalType": "uint256",
          "name": "maxHp",
          "type": "uint256"
        },
        {
          "internalType": "uint256",
          "name": "attackDamage",
          "type": "uint256"
        }
      ],
      "stateMutability": "view",
      "type": "function"
    },
    {
      "inputs": [
        {
          "internalType": "address",
          "name": "",
          "type": "address"
        }
      ],
      "name": "nftHolders",
      "outputs": [
        {
          "internalType": "uint256",
          "name": "",
          "type": "uint256"
        }
      ],
      "stateMutability": "view",
      "type": "function"
    },
    {
      "inputs": [
        {
          "internalType": "uint256",
          "name": "tokenId",
          "type": "uint256"
        }
      ],
      "name": "ownerOf",
      "outputs": [
        {
          "internalType": "address",
          "name": "",
          "type": "address"
        }
      ],
      "stateMutability": "view",
      "type": "function"
    },
    {
      "inputs": [
        {
          "internalType": "address",
          "name": "from",
          "type": "address"
        },
        {
          "internalType": "address",
          "name": "to",
          "type": "address"
        },
        {
          "internalType": "uint256",
          "name": "tokenId",
          "type": "uint256"
        }
      ],
      "name": "safeTransferFrom",
      "outputs": [],
      "stateMutability": "nonpayable",
      "type": "function"
    },
    {
      "inputs": [
        {
          "internalType": "address",
          "name": "from",
          "type": "address"
        },
        {
          "internalType": "address",
          "name": "to",
          "type": "address"
        },
        {
          "internalType": "uint256",
          "name": "tokenId",
          "type": "uint256"
        },
        {
          "internalType": "bytes",
          "name": "data",
          "type": "bytes"
        }
      ],
      "name": "safeTransferFrom",
      "outputs": [],
      "stateMutability": "nonpayable",
      "type": "function"
    },
    {
      "inputs": [
        {
          "internalType": "address",
          "name": "operator",
          "type": "address"
        },
        {
          "internalType": "bool",
          "name": "approved",
          "type": "bool"
        }
      ],
      "name": "setApprovalForAll",
      "outputs": [],
      "stateMutability": "nonpayable",
      "type": "function"
    },
    {
      "inputs": [
        {
          "internalType": "bytes4",
          "name": "interfaceId",
          "type": "bytes4"
        }
      ],
      "name": "supportsInterface",
      "outputs": [
        {
          "internalType": "bool",
          "name": "",
          "type": "bool"
        }
      ],
      "stateMutability": "view",
      "type": "function"
    },
    {
      "inputs": [],
      "name": "symbol",
      "outputs": [
        {
          "internalType": "string",
          "name": "",
          "type": "string"
        }
      ],
      "stateMutability": "view",
      "type": "function"
    },
    {
      "inputs": [
        {
          "internalType": "uint256",
          "name": "_tokenId",
          "type": "uint256"
        }
      ],
      "name": "tokenURI",
      "outputs": [
        {
          "internalType": "string",
          "name": "",
          "type": "string"
        }
      ],
      "stateMutability": "view",
      "type": "function"
    },
    {
      "inputs": [
        {
          "internalType": "address",
          "name": "from",
          "type": "address"
        },
        {
          "internalType": "address",
          "name": "to",
          "type": "address"
        },
        {
          "internalType": "uint256",
          "name": "tokenId",
          "type": "uint256"
        }
      ],
      "name": "transferFrom",
      "outputs": [],
      "stateMutability": "nonpayable",
      "type": "function"
    },
    {
      "inputs": [],
      "name": "villan",
      "outputs": [
        {
          "internalType": "string",
          "name": "name",
          "type": "string"
        },
        {
          "internalType": "string",
          "name": "imageURI",
          "type": "string"
        },
        {
          "internalType": "uint256",
          "name": "hp",
          "type": "uint256"
        },
        {
          "internalType": "uint256",
          "name": "maxHp",
          "type": "uint256"
        },
        {
          "internalType": "uint256",
          "name": "attactDamage",
          "type": "uint256"
        }
      ],
      "stateMutability": "view",
      "type": "function"
    }
  ],
  "bytecode": "0x60806040526000600b553480156200001657600080fd5b5060405162005f9338038062005f9383398181016040528101906200003c919062000aae565b6040518060400160405280600681526020017f4865726f657300000000000000000000000000000000000000000000000000008152506040518060400160405280600481526020017f4845524f000000000000000000000000000000000000000000000000000000008152508160009081620000b9919062000ebe565b508060019081620000cb919062000ebe565b5050506040518060a0016040528086815260200185815260200184815260200183815260200182815250600660008201518160000190816200010e919062000ebe565b50602082015181600101908162000126919062000ebe565b50604082015181600201556060820151816003015560808201518160040155905050620002a96040518060600160405280602c815260200162005f67602c913960066000018054620001789062000cb7565b80601f0160208091040260200160405190810160405280929190818152602001828054620001a69062000cb7565b8015620001f75780601f10620001cb57610100808354040283529160200191620001f7565b820191906000526020600020905b815481529060010190602001808311620001d957829003601f168201915b505050505060066002015460066001018054620002149062000cb7565b80601f0160208091040260200160405190810160405280929190818152602001828054620002429062000cb7565b8015620002935780601f10620002675761010080835404028352916020019162000293565b820191906000526020600020905b8154815290600101906020018083116200027557829003601f168201915b50505050506200062360201b62001ea31760201c565b60005b8a51811015620005fb57600c6040518060c001604052808381526020018d8481518110620002df57620002de62000fa5565b5b602002602001015181526020018c848151811062000302576200030162000fa5565b5b602002602001015181526020018b848151811062000325576200032462000fa5565b5b602002602001015181526020018a848151811062000348576200034762000fa5565b5b602002602001015181526020018984815181106200036b576200036a62000fa5565b5b60200260200101518152509080600181540180825580915050600190039060005260206000209060060201600090919091909150600082015181600001556020820151816001019081620003c0919062000ebe565b506040820151816002019081620003d8919062000ebe565b50606082015181600301556080820151816004015560a0820151816005015550506000600c828154811062000412576200041162000fa5565b5b90600052602060002090600602016040518060c001604052908160008201548152602001600182018054620004479062000cb7565b80601f0160208091040260200160405190810160405280929190818152602001828054620004759062000cb7565b8015620004c65780601f106200049a57610100808354040283529160200191620004c6565b820191906000526020600020905b815481529060010190602001808311620004a857829003601f168201915b50505050508152602001600282018054620004e19062000cb7565b80601f01602080910402602001604051908101604052809291908181526020018280546200050f9062000cb7565b8015620005605780601f10620005345761010080835404028352916020019162000560565b820191906000526020600020905b8154815290600101906020018083116200054257829003601f168201915b5050505050815260200160038201548152602001600482015481526020016005820154815250509050620005e36040518060400160405280601d81526020017f496e697469616c69736564202520776974682025732c20696d672025730000008152508260200151836060015184604001516200062360201b62001ea31760201c565b50600181620005f3919062001003565b9050620002ac565b5062000613600d620006cf60201b62001f451760201c565b5050505050505050505062001103565b620006c984848484604051602401620006409493929190620010a1565b6040516020818303038152906040527f5d1a971a000000000000000000000000000000000000000000000000000000007bffffffffffffffffffffffffffffffffffffffffffffffffffffffff19166020820180517bffffffffffffffffffffffffffffffffffffffffffffffffffffffff8381831617835250505050620006e560201b60201c565b50505050565b6001816000016000828254019250508190555050565b60008151905060006a636f6e736f6c652e6c6f679050602083016000808483855afa5050505050565b6000604051905090565b600080fd5b600080fd5b600080fd5b6000601f19601f8301169050919050565b7f4e487b7100000000000000000000000000000000000000000000000000000000600052604160045260246000fd5b620007728262000727565b810181811067ffffffffffffffff8211171562000794576200079362000738565b5b80604052505050565b6000620007a96200070e565b9050620007b7828262000767565b919050565b600067ffffffffffffffff821115620007da57620007d962000738565b5b602082029050602081019050919050565b600080fd5b600080fd5b600067ffffffffffffffff82111562000813576200081262000738565b5b6200081e8262000727565b9050602081019050919050565b60005b838110156200084b5780820151818401526020810190506200082e565b60008484015250505050565b60006200086e6200086884620007f5565b6200079d565b9050828152602081018484840111156200088d576200088c620007f0565b5b6200089a8482856200082b565b509392505050565b600082601f830112620008ba57620008b962000722565b5b8151620008cc84826020860162000857565b91505092915050565b6000620008ec620008e684620007bc565b6200079d565b90508083825260208201905060208402830185811115620009125762000911620007eb565b5b835b818110156200096057805167ffffffffffffffff8111156200093b576200093a62000722565b5b8086016200094a8982620008a2565b8552602085019450505060208101905062000914565b5050509392505050565b600082601f83011262000982576200098162000722565b5b815162000994848260208601620008d5565b91505092915050565b600067ffffffffffffffff821115620009bb57620009ba62000738565b5b602082029050602081019050919050565b6000819050919050565b620009e181620009cc565b8114620009ed57600080fd5b50565b60008151905062000a0181620009d6565b92915050565b600062000a1e62000a18846200099d565b6200079d565b9050808382526020820190506020840283018581111562000a445762000a43620007eb565b5b835b8181101562000a71578062000a5c8882620009f0565b84526020840193505060208101905062000a46565b5050509392505050565b600082601f83011262000a935762000a9262000722565b5b815162000aa584826020860162000a07565b91505092915050565b6000806000806000806000806000806101408b8d03121562000ad55762000ad462000718565b5b60008b015167ffffffffffffffff81111562000af65762000af56200071d565b5b62000b048d828e016200096a565b9a505060208b015167ffffffffffffffff81111562000b285762000b276200071d565b5b62000b368d828e016200096a565b99505060408b015167ffffffffffffffff81111562000b5a5762000b596200071d565b5b62000b688d828e0162000a7b565b98505060608b015167ffffffffffffffff81111562000b8c5762000b8b6200071d565b5b62000b9a8d828e0162000a7b565b97505060808b015167ffffffffffffffff81111562000bbe5762000bbd6200071d565b5b62000bcc8d828e0162000a7b565b96505060a08b015167ffffffffffffffff81111562000bf05762000bef6200071d565b5b62000bfe8d828e01620008a2565b95505060c08b015167ffffffffffffffff81111562000c225762000c216200071d565b5b62000c308d828e01620008a2565b94505060e062000c438d828e01620009f0565b93505061010062000c578d828e01620009f0565b92505061012062000c6b8d828e01620009f0565b9150509295989b9194979a5092959850565b600081519050919050565b7f4e487b7100000000000000000000000000000000000000000000000000000000600052602260045260246000fd5b6000600282049050600182168062000cd057607f821691505b60208210810362000ce65762000ce562000c88565b5b50919050565b60008190508160005260206000209050919050565b60006020601f8301049050919050565b600082821b905092915050565b60006008830262000d507fffffffffffffffffffffffffffffffffffffffffffffffffffffffffffffffff8262000d11565b62000d5c868362000d11565b95508019841693508086168417925050509392505050565b6000819050919050565b600062000d9f62000d9962000d9384620009cc565b62000d74565b620009cc565b9050919050565b6000819050919050565b62000dbb8362000d7e565b62000dd362000dca8262000da6565b84845462000d1e565b825550505050565b600090565b62000dea62000ddb565b62000df781848462000db0565b505050565b5b8181101562000e1f5762000e1360008262000de0565b60018101905062000dfd565b5050565b601f82111562000e6e5762000e388162000cec565b62000e438462000d01565b8101602085101562000e53578190505b62000e6b62000e628562000d01565b83018262000dfc565b50505b505050565b600082821c905092915050565b600062000e936000198460080262000e73565b1980831691505092915050565b600062000eae838362000e80565b9150826002028217905092915050565b62000ec98262000c7d565b67ffffffffffffffff81111562000ee55762000ee462000738565b5b62000ef1825462000cb7565b62000efe82828562000e23565b600060209050601f83116001811462000f36576000841562000f21578287015190505b62000f2d858262000ea0565b86555062000f9d565b601f19841662000f468662000cec565b60005b8281101562000f705784890151825560018201915060208501945060208101905062000f49565b8683101562000f90578489015162000f8c601f89168262000e80565b8355505b6001600288020188555050505b505050505050565b7f4e487b7100000000000000000000000000000000000000000000000000000000600052603260045260246000fd5b7f4e487b7100000000000000000000000000000000000000000000000000000000600052601160045260246000fd5b60006200101082620009cc565b91506200101d83620009cc565b925082820190508082111562001038576200103762000fd4565b5b92915050565b600082825260208201905092915050565b60006200105c8262000c7d565b6200106881856200103e565b93506200107a8185602086016200082b565b620010858162000727565b840191505092915050565b6200109b81620009cc565b82525050565b60006080820190508181036000830152620010bd81876200104f565b90508181036020830152620010d381866200104f565b9050620010e4604083018562001090565b8181036060830152620010f881846200104f565b905095945050505050565b614e5480620011136000396000f3fe608060405234801561001057600080fd5b50600436106101375760003560e01c806395d89b41116100b8578063c6c5c0d11161007c578063c6c5c0d114610369578063c87b56dd14610373578063c8cf27f4146103a3578063c9a301f3146103c1578063e985e9c5146103df578063f8b81ef71461040f57610137565b806395d89b41146102c057806398da4c95146102de578063a22cb46514610313578063b88d4fde1461032f578063b953084e1461034b57610137565b806342842e0e116100ff57806342842e0e146101f25780634688ccf21461020e5780636352211e1461023057806370a08231146102605780637df124a11461029057610137565b806301ffc9a71461013c57806306fdde031461016c578063081812fc1461018a578063095ea7b3146101ba57806323b872dd146101d6575b600080fd5b61015660048036038101906101519190613173565b61042b565b60405161016391906131bb565b60405180910390f35b61017461050d565b6040516101819190613266565b60405180910390f35b6101a4600480360381019061019f91906132be565b61059f565b6040516101b1919061332c565b60405180910390f35b6101d460048036038101906101cf9190613373565b6105e5565b005b6101f060048036038101906101eb91906133b3565b6106fc565b005b61020c600480360381019061020791906133b3565b61075c565b005b61021661077c565b604051610227959493929190613415565b60405180910390f35b61024a600480360381019061024591906132be565b6108b0565b604051610257919061332c565b60405180910390f35b61027a60048036038101906102759190613476565b610961565b60405161028791906134a3565b60405180910390f35b6102aa60048036038101906102a59190613476565b610a18565b6040516102b791906134a3565b60405180910390f35b6102c8610a30565b6040516102d59190613266565b60405180910390f35b6102f860048036038101906102f391906132be565b610ac2565b60405161030a969594939291906134be565b60405180910390f35b61032d60048036038101906103289190613559565b610c0e565b005b610349600480360381019061034491906136ce565b610c24565b005b610353610c86565b60405161036091906138fc565b60405180910390f35b610371610e31565b005b61038d600480360381019061038891906132be565b611598565b60405161039a9190613266565b60405180910390f35b6103ab6117b3565b6040516103b891906139ae565b60405180910390f35b6103c961198b565b6040516103d69190613a4d565b60405180910390f35b6103f960048036038101906103f49190613a6f565b611ae7565b60405161040691906131bb565b60405180910390f35b610429600480360381019061042491906132be565b611b7b565b005b60007f80ac58cd000000000000000000000000000000000000000000000000000000007bffffffffffffffffffffffffffffffffffffffffffffffffffffffff1916827bffffffffffffffffffffffffffffffffffffffffffffffffffffffff191614806104f657507f5b5e139f000000000000000000000000000000000000000000000000000000007bffffffffffffffffffffffffffffffffffffffffffffffffffffffff1916827bffffffffffffffffffffffffffffffffffffffffffffffffffffffff1916145b80610506575061050582611f5b565b5b9050919050565b60606000805461051c90613ade565b80601f016020809104026020016040519081016040528092919081815260200182805461054890613ade565b80156105955780601f1061056a57610100808354040283529160200191610595565b820191906000526020600020905b81548152906001019060200180831161057857829003601f168201915b5050505050905090565b60006105aa82611fc5565b6004600083815260200190815260200160002060009054906101000a900473ffffffffffffffffffffffffffffffffffffffff169050919050565b60006105f0826108b0565b90508073ffffffffffffffffffffffffffffffffffffffff168373ffffffffffffffffffffffffffffffffffffffff1603610660576040517f08c379a000000000000000000000000000000000000000000000000000000000815260040161065790613b81565b60405180910390fd5b8073ffffffffffffffffffffffffffffffffffffffff1661067f612010565b73ffffffffffffffffffffffffffffffffffffffff1614806106ae57506106ad816106a8612010565b611ae7565b5b6106ed576040517f08c379a00000000000000000000000000000000000000000000000000000000081526004016106e490613c13565b60405180910390fd5b6106f78383612018565b505050565b61070d610707612010565b826120d1565b61074c576040517f08c379a000000000000000000000000000000000000000000000000000000000815260040161074390613ca5565b60405180910390fd5b610757838383612166565b505050565b61077783838360405180602001604052806000815250610c24565b505050565b600680600001805461078d90613ade565b80601f01602080910402602001604051908101604052809291908181526020018280546107b990613ade565b80156108065780601f106107db57610100808354040283529160200191610806565b820191906000526020600020905b8154815290600101906020018083116107e957829003601f168201915b50505050509080600101805461081b90613ade565b80601f016020809104026020016040519081016040528092919081815260200182805461084790613ade565b80156108945780601f1061086957610100808354040283529160200191610894565b820191906000526020600020905b81548152906001019060200180831161087757829003601f168201915b5050505050908060020154908060030154908060040154905085565b6000806002600084815260200190815260200160002060009054906101000a900473ffffffffffffffffffffffffffffffffffffffff169050600073ffffffffffffffffffffffffffffffffffffffff168173ffffffffffffffffffffffffffffffffffffffff1603610958576040517f08c379a000000000000000000000000000000000000000000000000000000000815260040161094f90613d11565b60405180910390fd5b80915050919050565b60008073ffffffffffffffffffffffffffffffffffffffff168273ffffffffffffffffffffffffffffffffffffffff16036109d1576040517f08c379a00000000000000000000000000000000000000000000000000000000081526004016109c890613da3565b60405180910390fd5b600360008373ffffffffffffffffffffffffffffffffffffffff1673ffffffffffffffffffffffffffffffffffffffff168152602001908152602001600020549050919050565b600f6020528060005260406000206000915090505481565b606060018054610a3f90613ade565b80601f0160208091040260200160405190810160405280929190818152602001828054610a6b90613ade565b8015610ab85780601f10610a8d57610100808354040283529160200191610ab8565b820191906000526020600020905b815481529060010190602001808311610a9b57829003601f168201915b5050505050905090565b600e602052806000526040600020600091509050806000015490806001018054610aeb90613ade565b80601f0160208091040260200160405190810160405280929190818152602001828054610b1790613ade565b8015610b645780601f10610b3957610100808354040283529160200191610b64565b820191906000526020600020905b815481529060010190602001808311610b4757829003601f168201915b505050505090806002018054610b7990613ade565b80601f0160208091040260200160405190810160405280929190818152602001828054610ba590613ade565b8015610bf25780601f10610bc757610100808354040283529160200191610bf2565b820191906000526020600020905b815481529060010190602001808311610bd557829003601f168201915b5050505050908060030154908060040154908060050154905086565b610c20610c19612010565b83836123cc565b5050565b610c35610c2f612010565b836120d1565b610c74576040517f08c379a0000000000000000000000000000000000000000000000000000000008152600401610c6b90613ca5565b60405180910390fd5b610c8084848484612538565b50505050565b6060600c805480602002602001604051908101604052809291908181526020016000905b82821015610e2857838290600052602060002090600602016040518060c001604052908160008201548152602001600182018054610ce790613ade565b80601f0160208091040260200160405190810160405280929190818152602001828054610d1390613ade565b8015610d605780601f10610d3557610100808354040283529160200191610d60565b820191906000526020600020905b815481529060010190602001808311610d4357829003601f168201915b50505050508152602001600282018054610d7990613ade565b80601f0160208091040260200160405190810160405280929190818152602001828054610da590613ade565b8015610df25780601f10610dc757610100808354040283529160200191610df2565b820191906000526020600020905b815481529060010190602001808311610dd557829003601f168201915b50505050508152602001600382015481526020016004820154815260200160058201548152505081526020019060010190610caa565b50505050905090565b6000600f60003373ffffffffffffffffffffffffffffffffffffffff1673ffffffffffffffffffffffffffffffffffffffff1681526020019081526020016000205490506000600e60008381526020019081526020016000209050610f44604051806060016040528060348152602001614dab60349139826001018054610eb790613ade565b80601f0160208091040260200160405190810160405280929190818152602001828054610ee390613ade565b8015610f305780601f10610f0557610100808354040283529160200191610f30565b820191906000526020600020905b815481529060010190602001808311610f1357829003601f168201915b505050505083600301548460050154612594565b61101c6040518060400160405280601e81526020017f56696c6c616e202573206861732025732068706020616e64202573204144000081525060066000018054610f8d90613ade565b80601f0160208091040260200160405190810160405280929190818152602001828054610fb990613ade565b80156110065780601f10610fdb57610100808354040283529160200191611006565b820191906000526020600020905b815481529060010190602001808311610fe957829003601f168201915b5050505050600660020154600660040154612594565b6000816003015411611063576040517f08c379a000000000000000000000000000000000000000000000000000000000815260040161105a90613e0f565b60405180910390fd5b6000600660020154116110ab576040517f08c379a00000000000000000000000000000000000000000000000000000000081526004016110a290613e7b565b60405180910390fd5b8060050154600660020154101561110a5760006006600201819055506111056040518060400160405280600b81526020017f56696c6c616e2064696564000000000000000000000000000000000000000000815250612636565b6112d7565b6006611116600a6126cf565b111561120a5780600501546006600201546111319190613eca565b6006600201819055506112056040518060400160405280600f81526020017f257320676f742061747461636b6564000000000000000000000000000000000081525082600101805461118290613ade565b80601f01602080910402602001604051908101604052809291908181526020018280546111ae90613ade565b80156111fb5780601f106111d0576101008083540402835291602001916111fb565b820191906000526020600020905b8154815290600101906020018083116111de57829003601f168201915b505050505061272b565b6112d6565b6112d56040518060400160405280601481526020017f2573206d6973736564207468652061747461636b00000000000000000000000081525082600101805461125290613ade565b80601f016020809104026020016040519081016040528092919081815260200182805461127e90613ade565b80156112cb5780601f106112a0576101008083540402835291602001916112cb565b820191906000526020600020905b8154815290600101906020018083116112ae57829003601f168201915b505050505061272b565b5b5b6006600401548160030154101561133557600081600301819055506113306040518060400160405280600b81526020017f506c617965722064696564000000000000000000000000000000000000000000815250612636565b611503565b6003611341600a6126cf565b111561143557600660040154816003015461135c9190613eca565b81600301819055506114306040518060400160405280600f81526020017f257320676f742061747461636b65640000000000000000000000000000000000815250600660000180546113ad90613ade565b80601f01602080910402602001604051908101604052809291908181526020018280546113d990613ade565b80156114265780601f106113fb57610100808354040283529160200191611426565b820191906000526020600020905b81548152906001019060200180831161140957829003601f168201915b505050505061272b565b611502565b6115016040518060400160405280601481526020017f2573206d6973736564207468652061747461636b0000000000000000000000008152506006600001805461147e90613ade565b80601f01602080910402602001604051908101604052809291908181526020018280546114aa90613ade565b80156114f75780601f106114cc576101008083540402835291602001916114f7565b820191906000526020600020905b8154815290600101906020018083116114da57829003601f168201915b505050505061272b565b5b5b61152a6040518060600160405280602d8152602001614d28602d91396006600201546127c7565b6115506040518060600160405280602e8152602001614d7d602e913982600301546127c7565b7f32bd565ee3f2cb5ddd742bbecd6048d3e9abe90b3827a40c2b72d232e71e3c9d33600660020154836003015460405161158c93929190613efe565b60405180910390a15050565b60606000600e60008481526020019081526020016000206040518060c0016040529081600082015481526020016001820180546115d490613ade565b80601f016020809104026020016040519081016040528092919081815260200182805461160090613ade565b801561164d5780601f106116225761010080835404028352916020019161164d565b820191906000526020600020905b81548152906001019060200180831161163057829003601f168201915b5050505050815260200160028201805461166690613ade565b80601f016020809104026020016040519081016040528092919081815260200182805461169290613ade565b80156116df5780601f106116b4576101008083540402835291602001916116df565b820191906000526020600020905b8154815290600101906020018083116116c257829003601f168201915b505050505081526020016003820154815260200160048201548152602001600582015481525050905060006117178260600151612863565b905060006117288360800151612863565b905060006117398460a00151612863565b9050600061177f856020015161174e89612863565b876040015187878760405160200161176b96959493929190614243565b6040516020818303038152906040526129c3565b90506000816040516020016117949190614334565b6040516020818303038152906040529050809650505050505050919050565b6117bb6130a2565b6000600f60003373ffffffffffffffffffffffffffffffffffffffff1673ffffffffffffffffffffffffffffffffffffffff168152602001908152602001600020549050600081111561197a57600e60008281526020019081526020016000206040518060c00160405290816000820154815260200160018201805461184090613ade565b80601f016020809104026020016040519081016040528092919081815260200182805461186c90613ade565b80156118b95780601f1061188e576101008083540402835291602001916118b9565b820191906000526020600020905b81548152906001019060200180831161189c57829003601f168201915b505050505081526020016002820180546118d290613ade565b80601f01602080910402602001604051908101604052809291908181526020018280546118fe90613ade565b801561194b5780601f106119205761010080835404028352916020019161194b565b820191906000526020600020905b81548152906001019060200180831161192e57829003601f168201915b505050505081526020016003820154815260200160048201548152602001600582015481525050915050611988565b6119826130a2565b80925050505b90565b6119936130d8565b60066040518060a00160405290816000820180546119b090613ade565b80601f01602080910402602001604051908101604052809291908181526020018280546119dc90613ade565b8015611a295780601f106119fe57610100808354040283529160200191611a29565b820191906000526020600020905b815481529060010190602001808311611a0c57829003601f168201915b50505050508152602001600182018054611a4290613ade565b80601f0160208091040260200160405190810160405280929190818152602001828054611a6e90613ade565b8015611abb5780601f10611a9057610100808354040283529160200191611abb565b820191906000526020600020905b815481529060010190602001808311611a9e57829003601f168201915b505050505081526020016002820154815260200160038201548152602001600482015481525050905090565b6000600560008473ffffffffffffffffffffffffffffffffffffffff1673ffffffffffffffffffffffffffffffffffffffff16815260200190815260200160002060008373ffffffffffffffffffffffffffffffffffffffff1673ffffffffffffffffffffffffffffffffffffffff16815260200190815260200160002060009054906101000a900460ff16905092915050565b6000611b87600d612b5a565b9050611b933382612b68565b6040518060c00160405280838152602001600c8481548110611bb857611bb7614356565b5b90600052602060002090600602016001018054611bd490613ade565b80601f0160208091040260200160405190810160405280929190818152602001828054611c0090613ade565b8015611c4d5780601f10611c2257610100808354040283529160200191611c4d565b820191906000526020600020905b815481529060010190602001808311611c3057829003601f168201915b50505050508152602001600c8481548110611c6b57611c6a614356565b5b90600052602060002090600602016002018054611c8790613ade565b80601f0160208091040260200160405190810160405280929190818152602001828054611cb390613ade565b8015611d005780601f10611cd557610100808354040283529160200191611d00565b820191906000526020600020905b815481529060010190602001808311611ce357829003601f168201915b50505050508152602001600c8481548110611d1e57611d1d614356565b5b9060005260206000209060060201600301548152602001600c8481548110611d4957611d48614356565b5b9060005260206000209060060201600401548152602001600c8481548110611d7457611d73614356565b5b906000526020600020906006020160050154815250600e6000838152602001908152602001600020600082015181600001556020820151816001019081611dbb9190614531565b506040820151816002019081611dd19190614531565b50606082015181600301556080820151816004015560a08201518160050155905050611e16604051806060016040528060288152602001614d55602891398284612b86565b80600f60003373ffffffffffffffffffffffffffffffffffffffff1673ffffffffffffffffffffffffffffffffffffffff16815260200190815260200160002081905550611e64600d611f45565b7f4bc303fd457a97b4691b9af582ce71868a3d258638c8d4f8c60988a0f0bfb8cd338284604051611e9793929190613efe565b60405180910390a15050565b611f3f84848484604051602401611ebd9493929190614603565b6040516020818303038152906040527f5d1a971a000000000000000000000000000000000000000000000000000000007bffffffffffffffffffffffffffffffffffffffffffffffffffffffff19166020820180517bffffffffffffffffffffffffffffffffffffffffffffffffffffffff8381831617835250505050612c25565b50505050565b6001816000016000828254019250508190555050565b60007f01ffc9a7000000000000000000000000000000000000000000000000000000007bffffffffffffffffffffffffffffffffffffffffffffffffffffffff1916827bffffffffffffffffffffffffffffffffffffffffffffffffffffffff1916149050919050565b611fce81612c4e565b61200d576040517f08c379a000000000000000000000000000000000000000000000000000000000815260040161200490613d11565b60405180910390fd5b50565b600033905090565b816004600083815260200190815260200160002060006101000a81548173ffffffffffffffffffffffffffffffffffffffff021916908373ffffffffffffffffffffffffffffffffffffffff160217905550808273ffffffffffffffffffffffffffffffffffffffff1661208b836108b0565b73ffffffffffffffffffffffffffffffffffffffff167f8c5be1e5ebec7d5bd14f71427d1e84f3dd0314c0f7b2291e5b200ac8c7c3b92560405160405180910390a45050565b6000806120dd836108b0565b90508073ffffffffffffffffffffffffffffffffffffffff168473ffffffffffffffffffffffffffffffffffffffff16148061211f575061211e8185611ae7565b5b8061215d57508373ffffffffffffffffffffffffffffffffffffffff166121458461059f565b73ffffffffffffffffffffffffffffffffffffffff16145b91505092915050565b8273ffffffffffffffffffffffffffffffffffffffff16612186826108b0565b73ffffffffffffffffffffffffffffffffffffffff16146121dc576040517f08c379a00000000000000000000000000000000000000000000000000000000081526004016121d3906146cf565b60405180910390fd5b600073ffffffffffffffffffffffffffffffffffffffff168273ffffffffffffffffffffffffffffffffffffffff160361224b576040517f08c379a000000000000000000000000000000000000000000000000000000000815260040161224290614761565b60405180910390fd5b612256838383612cba565b612261600082612018565b6001600360008573ffffffffffffffffffffffffffffffffffffffff1673ffffffffffffffffffffffffffffffffffffffff16815260200190815260200160002060008282546122b19190613eca565b925050819055506001600360008473ffffffffffffffffffffffffffffffffffffffff1673ffffffffffffffffffffffffffffffffffffffff16815260200190815260200160002060008282546123089190614781565b92505081905550816002600083815260200190815260200160002060006101000a81548173ffffffffffffffffffffffffffffffffffffffff021916908373ffffffffffffffffffffffffffffffffffffffff160217905550808273ffffffffffffffffffffffffffffffffffffffff168473ffffffffffffffffffffffffffffffffffffffff167fddf252ad1be2c89b69c2b068fc378daa952ba7f163c4a11628f55a4df523b3ef60405160405180910390a46123c7838383612cbf565b505050565b8173ffffffffffffffffffffffffffffffffffffffff168373ffffffffffffffffffffffffffffffffffffffff160361243a576040517f08c379a000000000000000000000000000000000000000000000000000000000815260040161243190614801565b60405180910390fd5b80600560008573ffffffffffffffffffffffffffffffffffffffff1673ffffffffffffffffffffffffffffffffffffffff16815260200190815260200160002060008473ffffffffffffffffffffffffffffffffffffffff1673ffffffffffffffffffffffffffffffffffffffff16815260200190815260200160002060006101000a81548160ff0219169083151502179055508173ffffffffffffffffffffffffffffffffffffffff168373ffffffffffffffffffffffffffffffffffffffff167f17307eab39ab6107e8899845ad3d59bd9653f200f220920489ca2b5937696c318360405161252b91906131bb565b60405180910390a3505050565b612543848484612166565b61254f84848484612cc4565b61258e576040517f08c379a000000000000000000000000000000000000000000000000000000000815260040161258590614893565b60405180910390fd5b50505050565b612630848484846040516024016125ae94939291906148b3565b6040516020818303038152906040527ff45d7d2c000000000000000000000000000000000000000000000000000000007bffffffffffffffffffffffffffffffffffffffffffffffffffffffff19166020820180517bffffffffffffffffffffffffffffffffffffffffffffffffffffffff8381831617835250505050612c25565b50505050565b6126cc8160405160240161264a9190613266565b6040516020818303038152906040527f41304fac000000000000000000000000000000000000000000000000000000007bffffffffffffffffffffffffffffffffffffffffffffffffffffffff19166020820180517bffffffffffffffffffffffffffffffffffffffffffffffffffffffff8381831617835250505050612c25565b50565b6000600b60008154809291906126e490614906565b9190505550814233600b54604051602001612701939291906149b7565b6040516020818303038152906040528051906020012060001c6127249190614a23565b9050919050565b6127c38282604051602401612741929190614a54565b6040516020818303038152906040527f4b5c4277000000000000000000000000000000000000000000000000000000007bffffffffffffffffffffffffffffffffffffffffffffffffffffffff19166020820180517bffffffffffffffffffffffffffffffffffffffffffffffffffffffff8381831617835250505050612c25565b5050565b61285f82826040516024016127dd929190614a8b565b6040516020818303038152906040527fb60e72cc000000000000000000000000000000000000000000000000000000007bffffffffffffffffffffffffffffffffffffffffffffffffffffffff19166020820180517bffffffffffffffffffffffffffffffffffffffffffffffffffffffff8381831617835250505050612c25565b5050565b6060600082036128aa576040518060400160405280600181526020017f300000000000000000000000000000000000000000000000000000000000000081525090506129be565b600082905060005b600082146128dc5780806128c590614906565b915050600a826128d59190614abb565b91506128b2565b60008167ffffffffffffffff8111156128f8576128f76135a3565b5b6040519080825280601f01601f19166020018201604052801561292a5781602001600182028036833780820191505090505b5090505b600085146129b7576001826129439190613eca565b9150600a856129529190614a23565b603061295e9190614781565b60f81b81838151811061297457612973614356565b5b60200101907effffffffffffffffffffffffffffffffffffffffffffffffffffffffffffff1916908160001a905350600a856129b09190614abb565b945061292e565b8093505050505b919050565b6060600082519050600081036129eb5760405180602001604052806000815250915050612b55565b600060036002836129fc9190614781565b612a069190614abb565b6004612a129190614aec565b90506000602082612a239190614781565b67ffffffffffffffff811115612a3c57612a3b6135a3565b5b6040519080825280601f01601f191660200182016040528015612a6e5781602001600182028036833780820191505090505b5090506000604051806060016040528060408152602001614ddf604091399050600181016020830160005b86811015612b125760038101905062ffffff818a015116603f8160121c168401518060081b905060ff603f83600c1c1686015116810190508060081b905060ff603f8360061c1686015116810190508060081b905060ff603f831686015116810190508060e01b90508084526004840193505050612a99565b506003860660018114612b2c5760028114612b3c57612b47565b613d3d60f01b6002830352612b47565b603d60f81b60018303525b508484525050819450505050505b919050565b600081600001549050919050565b612b82828260405180602001604052806000815250612e4b565b5050565b612c20838383604051602401612b9e93929190614b2e565b6040516020818303038152906040527fca47c4eb000000000000000000000000000000000000000000000000000000007bffffffffffffffffffffffffffffffffffffffffffffffffffffffff19166020820180517bffffffffffffffffffffffffffffffffffffffffffffffffffffffff8381831617835250505050612c25565b505050565b60008151905060006a636f6e736f6c652e6c6f679050602083016000808483855afa5050505050565b60008073ffffffffffffffffffffffffffffffffffffffff166002600084815260200190815260200160002060009054906101000a900473ffffffffffffffffffffffffffffffffffffffff1673ffffffffffffffffffffffffffffffffffffffff1614159050919050565b505050565b505050565b6000612ce58473ffffffffffffffffffffffffffffffffffffffff16612ea6565b15612e3e578373ffffffffffffffffffffffffffffffffffffffff1663150b7a02612d0e612010565b8786866040518563ffffffff1660e01b8152600401612d309493929190614bc1565b6020604051808303816000875af1925050508015612d6c57506040513d601f19601f82011682018060405250810190612d699190614c22565b60015b612dee573d8060008114612d9c576040519150601f19603f3d011682016040523d82523d6000602084013e612da1565b606091505b506000815103612de6576040517f08c379a0000000000000000000000000000000000000000000000000000000008152600401612ddd90614893565b60405180910390fd5b805181602001fd5b63150b7a0260e01b7bffffffffffffffffffffffffffffffffffffffffffffffffffffffff1916817bffffffffffffffffffffffffffffffffffffffffffffffffffffffff191614915050612e43565b600190505b949350505050565b612e558383612ec9565b612e626000848484612cc4565b612ea1576040517f08c379a0000000000000000000000000000000000000000000000000000000008152600401612e9890614893565b60405180910390fd5b505050565b6000808273ffffffffffffffffffffffffffffffffffffffff163b119050919050565b600073ffffffffffffffffffffffffffffffffffffffff168273ffffffffffffffffffffffffffffffffffffffff1603612f38576040517f08c379a0000000000000000000000000000000000000000000000000000000008152600401612f2f90614c9b565b60405180910390fd5b612f4181612c4e565b15612f81576040517f08c379a0000000000000000000000000000000000000000000000000000000008152600401612f7890614d07565b60405180910390fd5b612f8d60008383612cba565b6001600360008473ffffffffffffffffffffffffffffffffffffffff1673ffffffffffffffffffffffffffffffffffffffff1681526020019081526020016000206000828254612fdd9190614781565b92505081905550816002600083815260200190815260200160002060006101000a81548173ffffffffffffffffffffffffffffffffffffffff021916908373ffffffffffffffffffffffffffffffffffffffff160217905550808273ffffffffffffffffffffffffffffffffffffffff16600073ffffffffffffffffffffffffffffffffffffffff167fddf252ad1be2c89b69c2b068fc378daa952ba7f163c4a11628f55a4df523b3ef60405160405180910390a461309e60008383612cbf565b5050565b6040518060c001604052806000815260200160608152602001606081526020016000815260200160008152602001600081525090565b6040518060a0016040528060608152602001606081526020016000815260200160008152602001600081525090565b6000604051905090565b600080fd5b600080fd5b60007fffffffff0000000000000000000000000000000000000000000000000000000082169050919050565b6131508161311b565b811461315b57600080fd5b50565b60008135905061316d81613147565b92915050565b60006020828403121561318957613188613111565b5b60006131978482850161315e565b91505092915050565b60008115159050919050565b6131b5816131a0565b82525050565b60006020820190506131d060008301846131ac565b92915050565b600081519050919050565b600082825260208201905092915050565b60005b838110156132105780820151818401526020810190506131f5565b60008484015250505050565b6000601f19601f8301169050919050565b6000613238826131d6565b61324281856131e1565b93506132528185602086016131f2565b61325b8161321c565b840191505092915050565b60006020820190508181036000830152613280818461322d565b905092915050565b6000819050919050565b61329b81613288565b81146132a657600080fd5b50565b6000813590506132b881613292565b92915050565b6000602082840312156132d4576132d3613111565b5b60006132e2848285016132a9565b91505092915050565b600073ffffffffffffffffffffffffffffffffffffffff82169050919050565b6000613316826132eb565b9050919050565b6133268161330b565b82525050565b6000602082019050613341600083018461331d565b92915050565b6133508161330b565b811461335b57600080fd5b50565b60008135905061336d81613347565b92915050565b6000806040838503121561338a57613389613111565b5b60006133988582860161335e565b92505060206133a9858286016132a9565b9150509250929050565b6000806000606084860312156133cc576133cb613111565b5b60006133da8682870161335e565b93505060206133eb8682870161335e565b92505060406133fc868287016132a9565b9150509250925092565b61340f81613288565b82525050565b600060a082019050818103600083015261342f818861322d565b90508181036020830152613443818761322d565b90506134526040830186613406565b61345f6060830185613406565b61346c6080830184613406565b9695505050505050565b60006020828403121561348c5761348b613111565b5b600061349a8482850161335e565b91505092915050565b60006020820190506134b86000830184613406565b92915050565b600060c0820190506134d36000830189613406565b81810360208301526134e5818861322d565b905081810360408301526134f9818761322d565b90506135086060830186613406565b6135156080830185613406565b61352260a0830184613406565b979650505050505050565b613536816131a0565b811461354157600080fd5b50565b6000813590506135538161352d565b92915050565b600080604083850312156135705761356f613111565b5b600061357e8582860161335e565b925050602061358f85828601613544565b9150509250929050565b600080fd5b600080fd5b7f4e487b7100000000000000000000000000000000000000000000000000000000600052604160045260246000fd5b6135db8261321c565b810181811067ffffffffffffffff821117156135fa576135f96135a3565b5b80604052505050565b600061360d613107565b905061361982826135d2565b919050565b600067ffffffffffffffff821115613639576136386135a3565b5b6136428261321c565b9050602081019050919050565b82818337600083830152505050565b600061367161366c8461361e565b613603565b90508281526020810184848401111561368d5761368c61359e565b5b61369884828561364f565b509392505050565b600082601f8301126136b5576136b4613599565b5b81356136c584826020860161365e565b91505092915050565b600080600080608085870312156136e8576136e7613111565b5b60006136f68782880161335e565b94505060206137078782880161335e565b9350506040613718878288016132a9565b925050606085013567ffffffffffffffff81111561373957613738613116565b5b613745878288016136a0565b91505092959194509250565b600081519050919050565b600082825260208201905092915050565b6000819050602082019050919050565b61378681613288565b82525050565b600082825260208201905092915050565b60006137a8826131d6565b6137b2818561378c565b93506137c28185602086016131f2565b6137cb8161321c565b840191505092915050565b600060c0830160008301516137ee600086018261377d565b5060208301518482036020860152613806828261379d565b91505060408301518482036040860152613820828261379d565b9150506060830151613835606086018261377d565b506080830151613848608086018261377d565b5060a083015161385b60a086018261377d565b508091505092915050565b600061387283836137d6565b905092915050565b6000602082019050919050565b600061389282613751565b61389c818561375c565b9350836020820285016138ae8561376d565b8060005b858110156138ea57848403895281516138cb8582613866565b94506138d68361387a565b925060208a019950506001810190506138b2565b50829750879550505050505092915050565b600060208201905081810360008301526139168184613887565b905092915050565b600060c083016000830151613936600086018261377d565b506020830151848203602086015261394e828261379d565b91505060408301518482036040860152613968828261379d565b915050606083015161397d606086018261377d565b506080830151613990608086018261377d565b5060a08301516139a360a086018261377d565b508091505092915050565b600060208201905081810360008301526139c8818461391e565b905092915050565b600060a08301600083015184820360008601526139ed828261379d565b91505060208301518482036020860152613a07828261379d565b9150506040830151613a1c604086018261377d565b506060830151613a2f606086018261377d565b506080830151613a42608086018261377d565b508091505092915050565b60006020820190508181036000830152613a6781846139d0565b905092915050565b60008060408385031215613a8657613a85613111565b5b6000613a948582860161335e565b9250506020613aa58582860161335e565b9150509250929050565b7f4e487b7100000000000000000000000000000000000000000000000000000000600052602260045260246000fd5b60006002820490506001821680613af657607f821691505b602082108103613b0957613b08613aaf565b5b50919050565b7f4552433732313a20617070726f76616c20746f2063757272656e74206f776e6560008201527f7200000000000000000000000000000000000000000000000000000000000000602082015250565b6000613b6b6021836131e1565b9150613b7682613b0f565b604082019050919050565b60006020820190508181036000830152613b9a81613b5e565b9050919050565b7f4552433732313a20617070726f76652063616c6c6572206973206e6f7420746f60008201527f6b656e206f776e6572206e6f7220617070726f76656420666f7220616c6c0000602082015250565b6000613bfd603e836131e1565b9150613c0882613ba1565b604082019050919050565b60006020820190508181036000830152613c2c81613bf0565b9050919050565b7f4552433732313a2063616c6c6572206973206e6f7420746f6b656e206f776e6560008201527f72206e6f7220617070726f766564000000000000000000000000000000000000602082015250565b6000613c8f602e836131e1565b9150613c9a82613c33565b604082019050919050565b60006020820190508181036000830152613cbe81613c82565b9050919050565b7f4552433732313a20696e76616c696420746f6b656e2049440000000000000000600082015250565b6000613cfb6018836131e1565b9150613d0682613cc5565b602082019050919050565b60006020820190508181036000830152613d2a81613cee565b9050919050565b7f4552433732313a2061646472657373207a65726f206973206e6f74206120766160008201527f6c6964206f776e65720000000000000000000000000000000000000000000000602082015250565b6000613d8d6029836131e1565b9150613d9882613d31565b604082019050919050565b60006020820190508181036000830152613dbc81613d80565b9050919050565b7f4572726f723a2063686172617465722068617665206c65737320485000000000600082015250565b6000613df9601c836131e1565b9150613e0482613dc3565b602082019050919050565b60006020820190508181036000830152613e2881613dec565b9050919050565b7f4572726f723a2076696c6c616e2068617665206c657373204850000000000000600082015250565b6000613e65601a836131e1565b9150613e7082613e2f565b602082019050919050565b60006020820190508181036000830152613e9481613e58565b9050919050565b7f4e487b7100000000000000000000000000000000000000000000000000000000600052601160045260246000fd5b6000613ed582613288565b9150613ee083613288565b9250828203905081811115613ef857613ef7613e9b565b5b92915050565b6000606082019050613f13600083018661331d565b613f206020830185613406565b613f2d6040830184613406565b949350505050565b600081905092915050565b7f7b226e616d65223a202200000000000000000000000000000000000000000000600082015250565b6000613f76600a83613f35565b9150613f8182613f40565b600a82019050919050565b6000613f97826131d6565b613fa18185613f35565b9350613fb18185602086016131f2565b80840191505092915050565b7f202d2d204e465420233a20000000000000000000000000000000000000000000600082015250565b6000613ff3600b83613f35565b9150613ffe82613fbd565b600b82019050919050565b7f222c20226465736372697074696f6e223a20225468697320697320616e204e4660008201527f542074686174206c6574732070656f706c6520706c617920696e20746865206760208201527f616d65204d657461766572736520536c6179657221222c2022696d616765223a60408201527f2022000000000000000000000000000000000000000000000000000000000000606082015250565b60006140b1606283613f35565b91506140bc82614009565b606282019050919050565b7f222c202261747472696275746573223a205b207b202274726169745f7479706560008201527f223a20224865616c746820506f696e7473222c202276616c7565223a20000000602082015250565b6000614123603d83613f35565b915061412e826140c7565b603d82019050919050565b7f2c20226d61785f76616c7565223a000000000000000000000000000000000000600082015250565b600061416f600e83613f35565b915061417a82614139565b600e82019050919050565b7f7d2c207b202274726169745f74797065223a202241747461636b2044616d616760008201527f65222c202276616c7565223a2000000000000000000000000000000000000000602082015250565b60006141e1602d83613f35565b91506141ec82614185565b602d82019050919050565b7f7d205d7d00000000000000000000000000000000000000000000000000000000600082015250565b600061422d600483613f35565b9150614238826141f7565b600482019050919050565b600061424e82613f69565b915061425a8289613f8c565b915061426582613fe6565b91506142718288613f8c565b915061427c826140a4565b91506142888287613f8c565b915061429382614116565b915061429f8286613f8c565b91506142aa82614162565b91506142b68285613f8c565b91506142c1826141d4565b91506142cd8284613f8c565b91506142d882614220565b9150819050979650505050505050565b7f646174613a6170706c69636174696f6e2f6a736f6e3b6261736536342c000000600082015250565b600061431e601d83613f35565b9150614329826142e8565b601d82019050919050565b600061433f82614311565b915061434b8284613f8c565b915081905092915050565b7f4e487b7100000000000000000000000000000000000000000000000000000000600052603260045260246000fd5b60008190508160005260206000209050919050565b60006020601f8301049050919050565b600082821b905092915050565b6000600883026143e77fffffffffffffffffffffffffffffffffffffffffffffffffffffffffffffffff826143aa565b6143f186836143aa565b95508019841693508086168417925050509392505050565b6000819050919050565b600061442e61442961442484613288565b614409565b613288565b9050919050565b6000819050919050565b61444883614413565b61445c61445482614435565b8484546143b7565b825550505050565b600090565b614471614464565b61447c81848461443f565b505050565b5b818110156144a057614495600082614469565b600181019050614482565b5050565b601f8211156144e5576144b681614385565b6144bf8461439a565b810160208510156144ce578190505b6144e26144da8561439a565b830182614481565b50505b505050565b600082821c905092915050565b6000614508600019846008026144ea565b1980831691505092915050565b600061452183836144f7565b9150826002028217905092915050565b61453a826131d6565b67ffffffffffffffff811115614553576145526135a3565b5b61455d8254613ade565b6145688282856144a4565b600060209050601f83116001811461459b5760008415614589578287015190505b6145938582614515565b8655506145fb565b601f1984166145a986614385565b60005b828110156145d1578489015182556001820191506020850194506020810190506145ac565b868310156145ee57848901516145ea601f8916826144f7565b8355505b6001600288020188555050505b505050505050565b6000608082019050818103600083015261461d818761322d565b90508181036020830152614631818661322d565b90506146406040830185613406565b8181036060830152614652818461322d565b905095945050505050565b7f4552433732313a207472616e736665722066726f6d20696e636f72726563742060008201527f6f776e6572000000000000000000000000000000000000000000000000000000602082015250565b60006146b96025836131e1565b91506146c48261465d565b604082019050919050565b600060208201905081810360008301526146e8816146ac565b9050919050565b7f4552433732313a207472616e7366657220746f20746865207a65726f2061646460008201527f7265737300000000000000000000000000000000000000000000000000000000602082015250565b600061474b6024836131e1565b9150614756826146ef565b604082019050919050565b6000602082019050818103600083015261477a8161473e565b9050919050565b600061478c82613288565b915061479783613288565b92508282019050808211156147af576147ae613e9b565b5b92915050565b7f4552433732313a20617070726f766520746f2063616c6c657200000000000000600082015250565b60006147eb6019836131e1565b91506147f6826147b5565b602082019050919050565b6000602082019050818103600083015261481a816147de565b9050919050565b7f4552433732313a207472616e7366657220746f206e6f6e20455243373231526560008201527f63656976657220696d706c656d656e7465720000000000000000000000000000602082015250565b600061487d6032836131e1565b915061488882614821565b604082019050919050565b600060208201905081810360008301526148ac81614870565b9050919050565b600060808201905081810360008301526148cd818761322d565b905081810360208301526148e1818661322d565b90506148f06040830185613406565b6148fd6060830184613406565b95945050505050565b600061491182613288565b91507fffffffffffffffffffffffffffffffffffffffffffffffffffffffffffffffff820361494357614942613e9b565b5b600182019050919050565b6000819050919050565b61496961496482613288565b61494e565b82525050565b60008160601b9050919050565b60006149878261496f565b9050919050565b60006149998261497c565b9050919050565b6149b16149ac8261330b565b61498e565b82525050565b60006149c38286614958565b6020820191506149d382856149a0565b6014820191506149e38284614958565b602082019150819050949350505050565b7f4e487b7100000000000000000000000000000000000000000000000000000000600052601260045260246000fd5b6000614a2e82613288565b9150614a3983613288565b925082614a4957614a486149f4565b5b828206905092915050565b60006040820190508181036000830152614a6e818561322d565b90508181036020830152614a82818461322d565b90509392505050565b60006040820190508181036000830152614aa5818561322d565b9050614ab46020830184613406565b9392505050565b6000614ac682613288565b9150614ad183613288565b925082614ae157614ae06149f4565b5b828204905092915050565b6000614af782613288565b9150614b0283613288565b9250828202614b1081613288565b91508282048414831517614b2757614b26613e9b565b5b5092915050565b60006060820190508181036000830152614b48818661322d565b9050614b576020830185613406565b614b646040830184613406565b949350505050565b600081519050919050565b600082825260208201905092915050565b6000614b9382614b6c565b614b9d8185614b77565b9350614bad8185602086016131f2565b614bb68161321c565b840191505092915050565b6000608082019050614bd6600083018761331d565b614be3602083018661331d565b614bf06040830185613406565b8181036060830152614c028184614b88565b905095945050505050565b600081519050614c1c81613147565b92915050565b600060208284031215614c3857614c37613111565b5b6000614c4684828501614c0d565b91505092915050565b7f4552433732313a206d696e7420746f20746865207a65726f2061646472657373600082015250565b6000614c856020836131e1565b9150614c9082614c4f565b602082019050919050565b60006020820190508181036000830152614cb481614c78565b9050919050565b7f4552433732313a20746f6b656e20616c7265616479206d696e74656400000000600082015250565b6000614cf1601c836131e1565b9150614cfc82614cbb565b602082019050919050565b60006020820190508181036000830152614d2081614ce4565b905091905056fe506c617965722061747461636b65642076696c6c616e2e20557064617465642056696c6c616e2068703a2025734d696e746564204e465420772f20746f6b656e496420257320616e6420636861726174657220257356696c6c616e2061747461636b656420706c617965722e205570646174656420706c617965722068703a2025730a506c617965722061626f757420746f2061747461636b202d206e616d65203a2025732c206870203a2025732c204144203a2025734142434445464748494a4b4c4d4e4f505152535455565758595a6162636465666768696a6b6c6d6e6f707172737475767778797a303132333435363738392b2fa2646970667358221220eb6ad10861a75ff171b53c66957bb838cf18309e98f89a62ecf25aaf40e42d6364736f6c63430008110033496e697469616c697365642056696c6c616e2025732077697468206870203a2025732c20696d67203a202573",
  "linkReferences": {},
  "deployedLinkReferences": {}
}