{
	"_format": "hh-sol-artifact-1",
	"contractName": "MyGame",
	"sourceName": "contracts/MyGame.sol",
	"abi": [
		{
			"inputs": [
				{
					"internalType": "string[]",
					"name": "charName",
					"type": "string[]"
				},
				{
					"internalType": "string[]",
					"name": "charImage",
					"type": "string[]"
				},
				{
					"internalType": "uint256[]",
					"name": "charHp",
					"type": "uint256[]"
				},
				{
					"internalType": "uint256[]",
					"name": "charMaxHp",
					"type": "uint256[]"
				},
				{
					"internalType": "uint256[]",
					"name": "charAttackDamage",
					"type": "uint256[]"
				},
				{
					"internalType": "string",
					"name": "villanName",
					"type": "string"
				},
				{
					"internalType": "string",
					"name": "villanImageURI",
					"type": "string"
				},
				{
					"internalType": "uint256",
					"name": "villanHp",
					"type": "uint256"
				},
				{
					"internalType": "uint256",
					"name": "villanMaxHp",
					"type": "uint256"
				},
				{
					"internalType": "uint256",
					"name": "villanAttackDamage",
					"type": "uint256"
				}
			],
			"stateMutability": "nonpayable",
			"type": "constructor"
		},
		{
			"anonymous": false,
			"inputs": [
				{
					"indexed": true,
					"internalType": "address",
					"name": "owner",
					"type": "address"
				},
				{
					"indexed": true,
					"internalType": "address",
					"name": "approved",
					"type": "address"
				},
				{
					"indexed": true,
					"internalType": "uint256",
					"name": "tokenId",
					"type": "uint256"
				}
			],
			"name": "Approval",
			"type": "event"
		},
		{
			"anonymous": false,
			"inputs": [
				{
					"indexed": true,
					"internalType": "address",
					"name": "owner",
					"type": "address"
				},
				{
					"indexed": true,
					"internalType": "address",
					"name": "operator",
					"type": "address"
				},
				{
					"indexed": false,
					"internalType": "bool",
					"name": "approved",
					"type": "bool"
				}
			],
			"name": "ApprovalForAll",
			"type": "event"
		},
		{
			"anonymous": false,
			"inputs": [
				{
					"indexed": false,
					"internalType": "address",
					"name": "sender",
					"type": "address"
				},
				{
					"indexed": false,
					"internalType": "uint256",
					"name": "newVillanHp",
					"type": "uint256"
				},
				{
					"indexed": false,
					"internalType": "uint256",
					"name": "newPlayerHp",
					"type": "uint256"
				}
			],
			"name": "AttackComplete",
			"type": "event"
		},
		{
			"anonymous": false,
			"inputs": [
				{
					"indexed": false,
					"internalType": "address",
					"name": "sender",
					"type": "address"
				},
				{
					"indexed": false,
					"internalType": "uint256",
					"name": "tokenId",
					"type": "uint256"
				},
				{
					"indexed": false,
					"internalType": "uint256",
					"name": "characterIndex",
					"type": "uint256"
				}
			],
			"name": "CharacterNFTMinted",
			"type": "event"
		},
		{
			"anonymous": false,
			"inputs": [
				{
					"indexed": true,
					"internalType": "address",
					"name": "from",
					"type": "address"
				},
				{
					"indexed": true,
					"internalType": "address",
					"name": "to",
					"type": "address"
				},
				{
					"indexed": true,
					"internalType": "uint256",
					"name": "tokenId",
					"type": "uint256"
				}
			],
			"name": "Transfer",
			"type": "event"
		},
		{
			"inputs": [
				{
					"internalType": "address",
					"name": "to",
					"type": "address"
				},
				{
					"internalType": "uint256",
					"name": "tokenId",
					"type": "uint256"
				}
			],
			"name": "approve",
			"outputs": [],
			"stateMutability": "nonpayable",
			"type": "function"
		},
		{
			"inputs": [],
			"name": "attackVillan",
			"outputs": [],
			"stateMutability": "nonpayable",
			"type": "function"
		},
		{
			"inputs": [
				{
					"internalType": "address",
					"name": "owner",
					"type": "address"
				}
			],
			"name": "balanceOf",
			"outputs": [
				{
					"internalType": "uint256",
					"name": "",
					"type": "uint256"
				}
			],
			"stateMutability": "view",
			"type": "function"
		},
		{
			"inputs": [],
			"name": "checkIfUserHasNFT",
			"outputs": [
				{
					"components": [
						{
							"internalType": "uint256",
							"name": "characterIndex",
							"type": "uint256"
						},
						{
							"internalType": "string",
							"name": "name",
							"type": "string"
						},
						{
							"internalType": "string",
							"name": "imageURI",
							"type": "string"
						},
						{
							"internalType": "uint256",
							"name": "hp",
							"type": "uint256"
						},
						{
							"internalType": "uint256",
							"name": "maxHp",
							"type": "uint256"
						},
						{
							"internalType": "uint256",
							"name": "attackDamage",
							"type": "uint256"
						}
					],
					"internalType": "struct MyGame.CharacterAttribute",
					"name": "",
					"type": "tuple"
				}
			],
			"stateMutability": "view",
			"type": "function"
		},
		{
			"inputs": [],
			"name": "getAllDefaultCharacters",
			"outputs": [
				{
					"components": [
						{
							"internalType": "uint256",
							"name": "characterIndex",
							"type": "uint256"
						},
						{
							"internalType": "string",
							"name": "name",
							"type": "string"
						},
						{
							"internalType": "string",
							"name": "imageURI",
							"type": "string"
						},
						{
							"internalType": "uint256",
							"name": "hp",
							"type": "uint256"
						},
						{
							"internalType": "uint256",
							"name": "maxHp",
							"type": "uint256"
						},
						{
							"internalType": "uint256",
							"name": "attackDamage",
							"type": "uint256"
						}
					],
					"internalType": "struct MyGame.CharacterAttribute[]",
					"name": "",
					"type": "tuple[]"
				}
			],
			"stateMutability": "view",
			"type": "function"
		},
		{
			"inputs": [
				{
					"internalType": "uint256",
					"name": "tokenId",
					"type": "uint256"
				}
			],
			"name": "getApproved",
			"outputs": [
				{
					"internalType": "address",
					"name": "",
					"type": "address"
				}
			],
			"stateMutability": "view",
			"type": "function"
		},
		{
			"inputs": [],
			"name": "getVillan",
			"outputs": [
				{
					"components": [
						{
							"internalType": "string",
							"name": "name",
							"type": "string"
						},
						{
							"internalType": "string",
							"name": "imageURI",
							"type": "string"
						},
						{
							"internalType": "uint256",
							"name": "hp",
							"type": "uint256"
						},
						{
							"internalType": "uint256",
							"name": "maxHp",
							"type": "uint256"
						},
						{
							"internalType": "uint256",
							"name": "attackDamage",
							"type": "uint256"
						}
					],
					"internalType": "struct MyGame.Villan",
					"name": "",
					"type": "tuple"
				}
			],
			"stateMutability": "view",
			"type": "function"
		},
		{
			"inputs": [
				{
					"internalType": "address",
					"name": "owner",
					"type": "address"
				},
				{
					"internalType": "address",
					"name": "operator",
					"type": "address"
				}
			],
			"name": "isApprovedForAll",
			"outputs": [
				{
					"internalType": "bool",
					"name": "",
					"type": "bool"
				}
			],
			"stateMutability": "view",
			"type": "function"
		},
		{
			"inputs": [
				{
					"internalType": "uint256",
					"name": "_characterIndex",
					"type": "uint256"
				}
			],
			"name": "mintCharacterNFT",
			"outputs": [],
			"stateMutability": "nonpayable",
			"type": "function"
		},
		{
			"inputs": [],
			"name": "name",
			"outputs": [
				{
					"internalType": "string",
					"name": "",
					"type": "string"
				}
			],
			"stateMutability": "view",
			"type": "function"
		},
		{
			"inputs": [
				{
					"internalType": "uint256",
					"name": "",
					"type": "uint256"
				}
			],
			"name": "nftHolderAttributes",
			"outputs": [
				{
					"internalType": "uint256",
					"name": "characterIndex",
					"type": "uint256"
				},
				{
					"internalType": "string",
					"name": "name",
					"type": "string"
				},
				{
					"internalType": "string",
					"name": "imageURI",
					"type": "string"
				},
				{
					"internalType": "uint256",
					"name": "hp",
					"type": "uint256"
				},
				{
					"internalType": "uint256",
					"name": "maxHp",
					"type": "uint256"
				},
				{
					"internalType": "uint256",
					"name": "attackDamage",
					"type": "uint256"
				}
			],
			"stateMutability": "view",
			"type": "function"
		},
		{
			"inputs": [
				{
					"internalType": "address",
					"name": "",
					"type": "address"
				}
			],
			"name": "nftHolders",
			"outputs": [
				{
					"internalType": "uint256",
					"name": "",
					"type": "uint256"
				}
			],
			"stateMutability": "view",
			"type": "function"
		},
		{
			"inputs": [],
			"name": "owner",
			"outputs": [
				{
					"internalType": "address",
					"name": "",
					"type": "address"
				}
			],
			"stateMutability": "view",
			"type": "function"
		},
		{
			"inputs": [
				{
					"internalType": "uint256",
					"name": "tokenId",
					"type": "uint256"
				}
			],
			"name": "ownerOf",
			"outputs": [
				{
					"internalType": "address",
					"name": "",
					"type": "address"
				}
			],
			"stateMutability": "view",
			"type": "function"
		},
		{
			"inputs": [],
			"name": "reviveVillan",
			"outputs": [],
			"stateMutability": "nonpayable",
			"type": "function"
		},
		{
			"inputs": [
				{
					"internalType": "address",
					"name": "from",
					"type": "address"
				},
				{
					"internalType": "address",
					"name": "to",
					"type": "address"
				},
				{
					"internalType": "uint256",
					"name": "tokenId",
					"type": "uint256"
				}
			],
			"name": "safeTransferFrom",
			"outputs": [],
			"stateMutability": "nonpayable",
			"type": "function"
		},
		{
			"inputs": [
				{
					"internalType": "address",
					"name": "from",
					"type": "address"
				},
				{
					"internalType": "address",
					"name": "to",
					"type": "address"
				},
				{
					"internalType": "uint256",
					"name": "tokenId",
					"type": "uint256"
				},
				{
					"internalType": "bytes",
					"name": "data",
					"type": "bytes"
				}
			],
			"name": "safeTransferFrom",
			"outputs": [],
			"stateMutability": "nonpayable",
			"type": "function"
		},
		{
			"inputs": [
				{
					"internalType": "address",
					"name": "operator",
					"type": "address"
				},
				{
					"internalType": "bool",
					"name": "approved",
					"type": "bool"
				}
			],
			"name": "setApprovalForAll",
			"outputs": [],
			"stateMutability": "nonpayable",
			"type": "function"
		},
		{
			"inputs": [
				{
					"internalType": "bytes4",
					"name": "interfaceId",
					"type": "bytes4"
				}
			],
			"name": "supportsInterface",
			"outputs": [
				{
					"internalType": "bool",
					"name": "",
					"type": "bool"
				}
			],
			"stateMutability": "view",
			"type": "function"
		},
		{
			"inputs": [],
			"name": "symbol",
			"outputs": [
				{
					"internalType": "string",
					"name": "",
					"type": "string"
				}
			],
			"stateMutability": "view",
			"type": "function"
		},
		{
			"inputs": [
				{
					"internalType": "uint256",
					"name": "_tokenId",
					"type": "uint256"
				}
			],
			"name": "tokenURI",
			"outputs": [
				{
					"internalType": "string",
					"name": "",
					"type": "string"
				}
			],
			"stateMutability": "view",
			"type": "function"
		},
		{
			"inputs": [
				{
					"internalType": "address",
					"name": "from",
					"type": "address"
				},
				{
					"internalType": "address",
					"name": "to",
					"type": "address"
				},
				{
					"internalType": "uint256",
					"name": "tokenId",
					"type": "uint256"
				}
			],
			"name": "transferFrom",
			"outputs": [],
			"stateMutability": "nonpayable",
			"type": "function"
		},
		{
			"inputs": [],
			"name": "villan",
			"outputs": [
				{
					"internalType": "string",
					"name": "name",
					"type": "string"
				},
				{
					"internalType": "string",
					"name": "imageURI",
					"type": "string"
				},
				{
					"internalType": "uint256",
					"name": "hp",
					"type": "uint256"
				},
				{
					"internalType": "uint256",
					"name": "maxHp",
					"type": "uint256"
				},
				{
					"internalType": "uint256",
					"name": "attackDamage",
					"type": "uint256"
				}
			],
			"stateMutability": "view",
			"type": "function"
		}
	],
	"bytecode": "0x60806040526000600b553480156200001657600080fd5b50604051620060a6380380620060a683398181016040528101906200003c919062000aef565b6040518060400160405280600881526020017f6176656e676572730000000000000000000000000000000000000000000000008152506040518060400160405280600881526020017f4156454e474552530000000000000000000000000000000000000000000000008152508160009081620000b9919062000eff565b508060019081620000cb919062000eff565b50505033600c60006101000a81548173ffffffffffffffffffffffffffffffffffffffff021916908373ffffffffffffffffffffffffffffffffffffffff1602179055506040518060a0016040528086815260200185815260200184815260200183815260200182815250600660008201518160000190816200014f919062000eff565b50602082015181600101908162000167919062000eff565b50604082015181600201556060820151816003015560808201518160040155905050620002ea6040518060600160405280602c81526020016200607a602c913960066000018054620001b99062000cf8565b80601f0160208091040260200160405190810160405280929190818152602001828054620001e79062000cf8565b8015620002385780601f106200020c5761010080835404028352916020019162000238565b820191906000526020600020905b8154815290600101906020018083116200021a57829003601f168201915b505050505060066002015460066001018054620002559062000cf8565b80601f0160208091040260200160405190810160405280929190818152602001828054620002839062000cf8565b8015620002d45780601f10620002a857610100808354040283529160200191620002d4565b820191906000526020600020905b815481529060010190602001808311620002b657829003601f168201915b50505050506200066460201b62001f091760201c565b60005b8a518110156200063c57600d6040518060c001604052808381526020018d848151811062000320576200031f62000fe6565b5b602002602001015181526020018c848151811062000343576200034262000fe6565b5b602002602001015181526020018b848151811062000366576200036562000fe6565b5b602002602001015181526020018a848151811062000389576200038862000fe6565b5b60200260200101518152602001898481518110620003ac57620003ab62000fe6565b5b6020026020010151815250908060018154018082558091505060019003906000526020600020906006020160009091909190915060008201518160000155602082015181600101908162000401919062000eff565b50604082015181600201908162000419919062000eff565b50606082015181600301556080820151816004015560a0820151816005015550506000600d828154811062000453576200045262000fe6565b5b90600052602060002090600602016040518060c001604052908160008201548152602001600182018054620004889062000cf8565b80601f0160208091040260200160405190810160405280929190818152602001828054620004b69062000cf8565b8015620005075780601f10620004db5761010080835404028352916020019162000507565b820191906000526020600020905b815481529060010190602001808311620004e957829003601f168201915b50505050508152602001600282018054620005229062000cf8565b80601f0160208091040260200160405190810160405280929190818152602001828054620005509062000cf8565b8015620005a15780601f106200057557610100808354040283529160200191620005a1565b820191906000526020600020905b8154815290600101906020018083116200058357829003601f168201915b5050505050815260200160038201548152602001600482015481526020016005820154815250509050620006246040518060400160405280601e81526020017f496e697469616c6973656420257320776974682025732c20696d6720257300008152508260200151836060015184604001516200066460201b62001f091760201c565b5060018162000634919062001044565b9050620002ed565b5062000654600e6200071060201b62001fab1760201c565b5050505050505050505062001144565b6200070a84848484604051602401620006819493929190620010e2565b6040516020818303038152906040527f5d1a971a000000000000000000000000000000000000000000000000000000007bffffffffffffffffffffffffffffffffffffffffffffffffffffffff19166020820180517bffffffffffffffffffffffffffffffffffffffffffffffffffffffff83818316178352505050506200072660201b60201c565b50505050565b6001816000016000828254019250508190555050565b60008151905060006a636f6e736f6c652e6c6f679050602083016000808483855afa5050505050565b6000604051905090565b600080fd5b600080fd5b600080fd5b6000601f19601f8301169050919050565b7f4e487b7100000000000000000000000000000000000000000000000000000000600052604160045260246000fd5b620007b38262000768565b810181811067ffffffffffffffff82111715620007d557620007d462000779565b5b80604052505050565b6000620007ea6200074f565b9050620007f88282620007a8565b919050565b600067ffffffffffffffff8211156200081b576200081a62000779565b5b602082029050602081019050919050565b600080fd5b600080fd5b600067ffffffffffffffff82111562000854576200085362000779565b5b6200085f8262000768565b9050602081019050919050565b60005b838110156200088c5780820151818401526020810190506200086f565b60008484015250505050565b6000620008af620008a98462000836565b620007de565b905082815260208101848484011115620008ce57620008cd62000831565b5b620008db8482856200086c565b509392505050565b600082601f830112620008fb57620008fa62000763565b5b81516200090d84826020860162000898565b91505092915050565b60006200092d6200092784620007fd565b620007de565b905080838252602082019050602084028301858111156200095357620009526200082c565b5b835b81811015620009a157805167ffffffffffffffff8111156200097c576200097b62000763565b5b8086016200098b8982620008e3565b8552602085019450505060208101905062000955565b5050509392505050565b600082601f830112620009c357620009c262000763565b5b8151620009d584826020860162000916565b91505092915050565b600067ffffffffffffffff821115620009fc57620009fb62000779565b5b602082029050602081019050919050565b6000819050919050565b62000a228162000a0d565b811462000a2e57600080fd5b50565b60008151905062000a428162000a17565b92915050565b600062000a5f62000a5984620009de565b620007de565b9050808382526020820190506020840283018581111562000a855762000a846200082c565b5b835b8181101562000ab2578062000a9d888262000a31565b84526020840193505060208101905062000a87565b5050509392505050565b600082601f83011262000ad45762000ad362000763565b5b815162000ae684826020860162000a48565b91505092915050565b6000806000806000806000806000806101408b8d03121562000b165762000b1562000759565b5b60008b015167ffffffffffffffff81111562000b375762000b366200075e565b5b62000b458d828e01620009ab565b9a505060208b015167ffffffffffffffff81111562000b695762000b686200075e565b5b62000b778d828e01620009ab565b99505060408b015167ffffffffffffffff81111562000b9b5762000b9a6200075e565b5b62000ba98d828e0162000abc565b98505060608b015167ffffffffffffffff81111562000bcd5762000bcc6200075e565b5b62000bdb8d828e0162000abc565b97505060808b015167ffffffffffffffff81111562000bff5762000bfe6200075e565b5b62000c0d8d828e0162000abc565b96505060a08b015167ffffffffffffffff81111562000c315762000c306200075e565b5b62000c3f8d828e01620008e3565b95505060c08b015167ffffffffffffffff81111562000c635762000c626200075e565b5b62000c718d828e01620008e3565b94505060e062000c848d828e0162000a31565b93505061010062000c988d828e0162000a31565b92505061012062000cac8d828e0162000a31565b9150509295989b9194979a5092959850565b600081519050919050565b7f4e487b7100000000000000000000000000000000000000000000000000000000600052602260045260246000fd5b6000600282049050600182168062000d1157607f821691505b60208210810362000d275762000d2662000cc9565b5b50919050565b60008190508160005260206000209050919050565b60006020601f8301049050919050565b600082821b905092915050565b60006008830262000d917fffffffffffffffffffffffffffffffffffffffffffffffffffffffffffffffff8262000d52565b62000d9d868362000d52565b95508019841693508086168417925050509392505050565b6000819050919050565b600062000de062000dda62000dd48462000a0d565b62000db5565b62000a0d565b9050919050565b6000819050919050565b62000dfc8362000dbf565b62000e1462000e0b8262000de7565b84845462000d5f565b825550505050565b600090565b62000e2b62000e1c565b62000e3881848462000df1565b505050565b5b8181101562000e605762000e5460008262000e21565b60018101905062000e3e565b5050565b601f82111562000eaf5762000e798162000d2d565b62000e848462000d42565b8101602085101562000e94578190505b62000eac62000ea38562000d42565b83018262000e3d565b50505b505050565b600082821c905092915050565b600062000ed46000198460080262000eb4565b1980831691505092915050565b600062000eef838362000ec1565b9150826002028217905092915050565b62000f0a8262000cbe565b67ffffffffffffffff81111562000f265762000f2562000779565b5b62000f32825462000cf8565b62000f3f82828562000e64565b600060209050601f83116001811462000f77576000841562000f62578287015190505b62000f6e858262000ee1565b86555062000fde565b601f19841662000f878662000d2d565b60005b8281101562000fb15784890151825560018201915060208501945060208101905062000f8a565b8683101562000fd1578489015162000fcd601f89168262000ec1565b8355505b6001600288020188555050505b505050505050565b7f4e487b7100000000000000000000000000000000000000000000000000000000600052603260045260246000fd5b7f4e487b7100000000000000000000000000000000000000000000000000000000600052601160045260246000fd5b6000620010518262000a0d565b91506200105e8362000a0d565b925082820190508082111562001079576200107862001015565b5b92915050565b600082825260208201905092915050565b60006200109d8262000cbe565b620010a981856200107f565b9350620010bb8185602086016200086c565b620010c68162000768565b840191505092915050565b620010dc8162000a0d565b82525050565b60006080820190508181036000830152620010fe818762001090565b9050818103602083015262001114818662001090565b9050620011256040830185620010d1565b818103606083015262001139818462001090565b905095945050505050565b614f2680620011546000396000f3fe608060405234801561001057600080fd5b506004361061014d5760003560e01c80638da5cb5b116100c3578063c6c5c0d11161007c578063c6c5c0d1146103a7578063c87b56dd146103b1578063c8cf27f4146103e1578063c9a301f3146103ff578063e985e9c51461041d578063f8b81ef71461044d5761014d565b80638da5cb5b146102e057806395d89b41146102fe57806398da4c951461031c578063a22cb46514610351578063b88d4fde1461036d578063b953084e146103895761014d565b806342842e0e1161011557806342842e0e1461020857806344747f20146102245780634688ccf21461022e5780636352211e1461025057806370a08231146102805780637df124a1146102b05761014d565b806301ffc9a71461015257806306fdde0314610182578063081812fc146101a0578063095ea7b3146101d057806323b872dd146101ec575b600080fd5b61016c600480360381019061016791906131d9565b610469565b6040516101799190613221565b60405180910390f35b61018a61054b565b60405161019791906132cc565b60405180910390f35b6101ba60048036038101906101b59190613324565b6105dd565b6040516101c79190613392565b60405180910390f35b6101ea60048036038101906101e591906133d9565b610623565b005b61020660048036038101906102019190613419565b61073a565b005b610222600480360381019061021d9190613419565b61079a565b005b61022c6107ba565b005b61023661089f565b60405161024795949392919061347b565b60405180910390f35b61026a60048036038101906102659190613324565b6109d3565b6040516102779190613392565b60405180910390f35b61029a600480360381019061029591906134dc565b610a84565b6040516102a79190613509565b60405180910390f35b6102ca60048036038101906102c591906134dc565b610b3b565b6040516102d79190613509565b60405180910390f35b6102e8610b53565b6040516102f59190613392565b60405180910390f35b610306610b79565b60405161031391906132cc565b60405180910390f35b61033660048036038101906103319190613324565b610c0b565b60405161034896959493929190613524565b60405180910390f35b61036b600480360381019061036691906135bf565b610d57565b005b61038760048036038101906103829190613734565b610d6d565b005b610391610dcf565b60405161039e9190613962565b60405180910390f35b6103af610f7a565b005b6103cb60048036038101906103c69190613324565b6115fe565b6040516103d891906132cc565b60405180910390f35b6103e9611819565b6040516103f69190613a14565b60405180910390f35b6104076119f1565b6040516104149190613ab3565b60405180910390f35b61043760048036038101906104329190613ad5565b611b4d565b6040516104449190613221565b60405180910390f35b61046760048036038101906104629190613324565b611be1565b005b60007f80ac58cd000000000000000000000000000000000000000000000000000000007bffffffffffffffffffffffffffffffffffffffffffffffffffffffff1916827bffffffffffffffffffffffffffffffffffffffffffffffffffffffff1916148061053457507f5b5e139f000000000000000000000000000000000000000000000000000000007bffffffffffffffffffffffffffffffffffffffffffffffffffffffff1916827bffffffffffffffffffffffffffffffffffffffffffffffffffffffff1916145b80610544575061054382611fc1565b5b9050919050565b60606000805461055a90613b44565b80601f016020809104026020016040519081016040528092919081815260200182805461058690613b44565b80156105d35780601f106105a8576101008083540402835291602001916105d3565b820191906000526020600020905b8154815290600101906020018083116105b657829003601f168201915b5050505050905090565b60006105e88261202b565b6004600083815260200190815260200160002060009054906101000a900473ffffffffffffffffffffffffffffffffffffffff169050919050565b600061062e826109d3565b90508073ffffffffffffffffffffffffffffffffffffffff168373ffffffffffffffffffffffffffffffffffffffff160361069e576040517f08c379a000000000000000000000000000000000000000000000000000000000815260040161069590613be7565b60405180910390fd5b8073ffffffffffffffffffffffffffffffffffffffff166106bd612076565b73ffffffffffffffffffffffffffffffffffffffff1614806106ec57506106eb816106e6612076565b611b4d565b5b61072b576040517f08c379a000000000000000000000000000000000000000000000000000000000815260040161072290613c79565b60405180910390fd5b610735838361207e565b505050565b61074b610745612076565b82612137565b61078a576040517f08c379a000000000000000000000000000000000000000000000000000000000815260040161078190613d0b565b60405180910390fd5b6107958383836121cc565b505050565b6107b583838360405180602001604052806000815250610d6d565b505050565b600c60009054906101000a900473ffffffffffffffffffffffffffffffffffffffff1673ffffffffffffffffffffffffffffffffffffffff163373ffffffffffffffffffffffffffffffffffffffff161461084a576040517f08c379a000000000000000000000000000000000000000000000000000000000815260040161084190613d77565b60405180910390fd5b60066003015460066002018190555061089d6040518060400160405280601981526020017f76696c6c616e207265766976656420746f2066756c6c20687000000000000000815250600660020154612432565b565b60068060000180546108b090613b44565b80601f01602080910402602001604051908101604052809291908181526020018280546108dc90613b44565b80156109295780601f106108fe57610100808354040283529160200191610929565b820191906000526020600020905b81548152906001019060200180831161090c57829003601f168201915b50505050509080600101805461093e90613b44565b80601f016020809104026020016040519081016040528092919081815260200182805461096a90613b44565b80156109b75780601f1061098c576101008083540402835291602001916109b7565b820191906000526020600020905b81548152906001019060200180831161099a57829003601f168201915b5050505050908060020154908060030154908060040154905085565b6000806002600084815260200190815260200160002060009054906101000a900473ffffffffffffffffffffffffffffffffffffffff169050600073ffffffffffffffffffffffffffffffffffffffff168173ffffffffffffffffffffffffffffffffffffffff1603610a7b576040517f08c379a0000000000000000000000000000000000000000000000000000000008152600401610a7290613de3565b60405180910390fd5b80915050919050565b60008073ffffffffffffffffffffffffffffffffffffffff168273ffffffffffffffffffffffffffffffffffffffff1603610af4576040517f08c379a0000000000000000000000000000000000000000000000000000000008152600401610aeb90613e75565b60405180910390fd5b600360008373ffffffffffffffffffffffffffffffffffffffff1673ffffffffffffffffffffffffffffffffffffffff168152602001908152602001600020549050919050565b60106020528060005260406000206000915090505481565b600c60009054906101000a900473ffffffffffffffffffffffffffffffffffffffff1681565b606060018054610b8890613b44565b80601f0160208091040260200160405190810160405280929190818152602001828054610bb490613b44565b8015610c015780601f10610bd657610100808354040283529160200191610c01565b820191906000526020600020905b815481529060010190602001808311610be457829003601f168201915b5050505050905090565b600f602052806000526040600020600091509050806000015490806001018054610c3490613b44565b80601f0160208091040260200160405190810160405280929190818152602001828054610c6090613b44565b8015610cad5780601f10610c8257610100808354040283529160200191610cad565b820191906000526020600020905b815481529060010190602001808311610c9057829003601f168201915b505050505090806002018054610cc290613b44565b80601f0160208091040260200160405190810160405280929190818152602001828054610cee90613b44565b8015610d3b5780601f10610d1057610100808354040283529160200191610d3b565b820191906000526020600020905b815481529060010190602001808311610d1e57829003601f168201915b5050505050908060030154908060040154908060050154905086565b610d69610d62612076565b83836124ce565b5050565b610d7e610d78612076565b83612137565b610dbd576040517f08c379a0000000000000000000000000000000000000000000000000000000008152600401610db490613d0b565b60405180910390fd5b610dc98484848461263a565b50505050565b6060600d805480602002602001604051908101604052809291908181526020016000905b82821015610f7157838290600052602060002090600602016040518060c001604052908160008201548152602001600182018054610e3090613b44565b80601f0160208091040260200160405190810160405280929190818152602001828054610e5c90613b44565b8015610ea95780601f10610e7e57610100808354040283529160200191610ea9565b820191906000526020600020905b815481529060010190602001808311610e8c57829003601f168201915b50505050508152602001600282018054610ec290613b44565b80601f0160208091040260200160405190810160405280929190818152602001828054610eee90613b44565b8015610f3b5780601f10610f1057610100808354040283529160200191610f3b565b820191906000526020600020905b815481529060010190602001808311610f1e57829003601f168201915b50505050508152602001600382015481526020016004820154815260200160058201548152505081526020019060010190610df3565b50505050905090565b6000601060003373ffffffffffffffffffffffffffffffffffffffff1673ffffffffffffffffffffffffffffffffffffffff1681526020019081526020016000205490506000600f6000838152602001908152602001600020905061108d604051806060016040528060348152602001614e7d6034913982600101805461100090613b44565b80601f016020809104026020016040519081016040528092919081815260200182805461102c90613b44565b80156110795780601f1061104e57610100808354040283529160200191611079565b820191906000526020600020905b81548152906001019060200180831161105c57829003601f168201915b505050505083600301548460050154612696565b6111656040518060400160405280601e81526020017f56696c6c616e202573206861732025732068706020616e642025732041440000815250600660000180546110d690613b44565b80601f016020809104026020016040519081016040528092919081815260200182805461110290613b44565b801561114f5780601f106111245761010080835404028352916020019161114f565b820191906000526020600020905b81548152906001019060200180831161113257829003601f168201915b5050505050600660020154600660040154612696565b60008160030154116111ac576040517f08c379a00000000000000000000000000000000000000000000000000000000081526004016111a390613ee1565b60405180910390fd5b6000600660020154116111f4576040517f08c379a00000000000000000000000000000000000000000000000000000000081526004016111eb90613f4d565b60405180910390fd5b8060050154600660020154101561125357600060066002018190555061124e6040518060400160405280600b81526020017f56696c6c616e2064696564000000000000000000000000000000000000000000815250612738565b61133e565b80600501546006600201546112689190613f9c565b60066002018190555061133d6040518060400160405280600f81526020017f257320676f742061747461636b65640000000000000000000000000000000000815250600660000180546112ba90613b44565b80601f01602080910402602001604051908101604052809291908181526020018280546112e690613b44565b80156113335780601f1061130857610100808354040283529160200191611333565b820191906000526020600020905b81548152906001019060200180831161131657829003601f168201915b50505050506127d1565b5b6006600401548160030154101561139c57600081600301819055506113976040518060400160405280600b81526020017f506c617965722064696564000000000000000000000000000000000000000000815250612738565b611569565b60056113a8600a61286d565b111561149b5760066004015481600301546113c39190613f9c565b81600301819055506114966040518060400160405280600f81526020017f257320676f742061747461636b6564000000000000000000000000000000000081525082600101805461141390613b44565b80601f016020809104026020016040519081016040528092919081815260200182805461143f90613b44565b801561148c5780601f106114615761010080835404028352916020019161148c565b820191906000526020600020905b81548152906001019060200180831161146f57829003601f168201915b50505050506127d1565b611568565b6115676040518060400160405280601481526020017f2573206d6973736564207468652061747461636b000000000000000000000000815250600660000180546114e490613b44565b80601f016020809104026020016040519081016040528092919081815260200182805461151090613b44565b801561155d5780601f106115325761010080835404028352916020019161155d565b820191906000526020600020905b81548152906001019060200180831161154057829003601f168201915b50505050506127d1565b5b5b6115906040518060600160405280602d8152602001614dfa602d9139600660020154612432565b6115b66040518060600160405280602e8152602001614e4f602e91398260030154612432565b7f32bd565ee3f2cb5ddd742bbecd6048d3e9abe90b3827a40c2b72d232e71e3c9d3360066002015483600301546040516115f293929190613fd0565b60405180910390a15050565b60606000600f60008481526020019081526020016000206040518060c00160405290816000820154815260200160018201805461163a90613b44565b80601f016020809104026020016040519081016040528092919081815260200182805461166690613b44565b80156116b35780601f10611688576101008083540402835291602001916116b3565b820191906000526020600020905b81548152906001019060200180831161169657829003601f168201915b505050505081526020016002820180546116cc90613b44565b80601f01602080910402602001604051908101604052809291908181526020018280546116f890613b44565b80156117455780601f1061171a57610100808354040283529160200191611745565b820191906000526020600020905b81548152906001019060200180831161172857829003601f168201915b5050505050815260200160038201548152602001600482015481526020016005820154815250509050600061177d82606001516128c9565b9050600061178e83608001516128c9565b9050600061179f8460a001516128c9565b905060006117e585602001516117b4896128c9565b87604001518787876040516020016117d196959493929190614315565b604051602081830303815290604052612a29565b90506000816040516020016117fa9190614406565b6040516020818303038152906040529050809650505050505050919050565b611821613108565b6000601060003373ffffffffffffffffffffffffffffffffffffffff1673ffffffffffffffffffffffffffffffffffffffff16815260200190815260200160002054905060008111156119e057600f60008281526020019081526020016000206040518060c0016040529081600082015481526020016001820180546118a690613b44565b80601f01602080910402602001604051908101604052809291908181526020018280546118d290613b44565b801561191f5780601f106118f45761010080835404028352916020019161191f565b820191906000526020600020905b81548152906001019060200180831161190257829003601f168201915b5050505050815260200160028201805461193890613b44565b80601f016020809104026020016040519081016040528092919081815260200182805461196490613b44565b80156119b15780601f10611986576101008083540402835291602001916119b1565b820191906000526020600020905b81548152906001019060200180831161199457829003601f168201915b5050505050815260200160038201548152602001600482015481526020016005820154815250509150506119ee565b6119e8613108565b80925050505b90565b6119f961313e565b60066040518060a0016040529081600082018054611a1690613b44565b80601f0160208091040260200160405190810160405280929190818152602001828054611a4290613b44565b8015611a8f5780601f10611a6457610100808354040283529160200191611a8f565b820191906000526020600020905b815481529060010190602001808311611a7257829003601f168201915b50505050508152602001600182018054611aa890613b44565b80601f0160208091040260200160405190810160405280929190818152602001828054611ad490613b44565b8015611b215780601f10611af657610100808354040283529160200191611b21565b820191906000526020600020905b815481529060010190602001808311611b0457829003601f168201915b505050505081526020016002820154815260200160038201548152602001600482015481525050905090565b6000600560008473ffffffffffffffffffffffffffffffffffffffff1673ffffffffffffffffffffffffffffffffffffffff16815260200190815260200160002060008373ffffffffffffffffffffffffffffffffffffffff1673ffffffffffffffffffffffffffffffffffffffff16815260200190815260200160002060009054906101000a900460ff16905092915050565b6000611bed600e612bc0565b9050611bf93382612bce565b6040518060c00160405280838152602001600d8481548110611c1e57611c1d614428565b5b90600052602060002090600602016001018054611c3a90613b44565b80601f0160208091040260200160405190810160405280929190818152602001828054611c6690613b44565b8015611cb35780601f10611c8857610100808354040283529160200191611cb3565b820191906000526020600020905b815481529060010190602001808311611c9657829003601f168201915b50505050508152602001600d8481548110611cd157611cd0614428565b5b90600052602060002090600602016002018054611ced90613b44565b80601f0160208091040260200160405190810160405280929190818152602001828054611d1990613b44565b8015611d665780601f10611d3b57610100808354040283529160200191611d66565b820191906000526020600020905b815481529060010190602001808311611d4957829003601f168201915b50505050508152602001600d8481548110611d8457611d83614428565b5b9060005260206000209060060201600301548152602001600d8481548110611daf57611dae614428565b5b9060005260206000209060060201600401548152602001600d8481548110611dda57611dd9614428565b5b906000526020600020906006020160050154815250600f6000838152602001908152602001600020600082015181600001556020820151816001019081611e219190614603565b506040820151816002019081611e379190614603565b50606082015181600301556080820151816004015560a08201518160050155905050611e7c604051806060016040528060288152602001614e27602891398284612bec565b80601060003373ffffffffffffffffffffffffffffffffffffffff1673ffffffffffffffffffffffffffffffffffffffff16815260200190815260200160002081905550611eca600e611fab565b7f4bc303fd457a97b4691b9af582ce71868a3d258638c8d4f8c60988a0f0bfb8cd338284604051611efd93929190613fd0565b60405180910390a15050565b611fa584848484604051602401611f2394939291906146d5565b6040516020818303038152906040527f5d1a971a000000000000000000000000000000000000000000000000000000007bffffffffffffffffffffffffffffffffffffffffffffffffffffffff19166020820180517bffffffffffffffffffffffffffffffffffffffffffffffffffffffff8381831617835250505050612c8b565b50505050565b6001816000016000828254019250508190555050565b60007f01ffc9a7000000000000000000000000000000000000000000000000000000007bffffffffffffffffffffffffffffffffffffffffffffffffffffffff1916827bffffffffffffffffffffffffffffffffffffffffffffffffffffffff1916149050919050565b61203481612cb4565b612073576040517f08c379a000000000000000000000000000000000000000000000000000000000815260040161206a90613de3565b60405180910390fd5b50565b600033905090565b816004600083815260200190815260200160002060006101000a81548173ffffffffffffffffffffffffffffffffffffffff021916908373ffffffffffffffffffffffffffffffffffffffff160217905550808273ffffffffffffffffffffffffffffffffffffffff166120f1836109d3565b73ffffffffffffffffffffffffffffffffffffffff167f8c5be1e5ebec7d5bd14f71427d1e84f3dd0314c0f7b2291e5b200ac8c7c3b92560405160405180910390a45050565b600080612143836109d3565b90508073ffffffffffffffffffffffffffffffffffffffff168473ffffffffffffffffffffffffffffffffffffffff16148061218557506121848185611b4d565b5b806121c357508373ffffffffffffffffffffffffffffffffffffffff166121ab846105dd565b73ffffffffffffffffffffffffffffffffffffffff16145b91505092915050565b8273ffffffffffffffffffffffffffffffffffffffff166121ec826109d3565b73ffffffffffffffffffffffffffffffffffffffff1614612242576040517f08c379a0000000000000000000000000000000000000000000000000000000008152600401612239906147a1565b60405180910390fd5b600073ffffffffffffffffffffffffffffffffffffffff168273ffffffffffffffffffffffffffffffffffffffff16036122b1576040517f08c379a00000000000000000000000000000000000000000000000000000000081526004016122a890614833565b60405180910390fd5b6122bc838383612d20565b6122c760008261207e565b6001600360008573ffffffffffffffffffffffffffffffffffffffff1673ffffffffffffffffffffffffffffffffffffffff16815260200190815260200160002060008282546123179190613f9c565b925050819055506001600360008473ffffffffffffffffffffffffffffffffffffffff1673ffffffffffffffffffffffffffffffffffffffff168152602001908152602001600020600082825461236e9190614853565b92505081905550816002600083815260200190815260200160002060006101000a81548173ffffffffffffffffffffffffffffffffffffffff021916908373ffffffffffffffffffffffffffffffffffffffff160217905550808273ffffffffffffffffffffffffffffffffffffffff168473ffffffffffffffffffffffffffffffffffffffff167fddf252ad1be2c89b69c2b068fc378daa952ba7f163c4a11628f55a4df523b3ef60405160405180910390a461242d838383612d25565b505050565b6124ca8282604051602401612448929190614887565b6040516020818303038152906040527fb60e72cc000000000000000000000000000000000000000000000000000000007bffffffffffffffffffffffffffffffffffffffffffffffffffffffff19166020820180517bffffffffffffffffffffffffffffffffffffffffffffffffffffffff8381831617835250505050612c8b565b5050565b8173ffffffffffffffffffffffffffffffffffffffff168373ffffffffffffffffffffffffffffffffffffffff160361253c576040517f08c379a000000000000000000000000000000000000000000000000000000000815260040161253390614903565b60405180910390fd5b80600560008573ffffffffffffffffffffffffffffffffffffffff1673ffffffffffffffffffffffffffffffffffffffff16815260200190815260200160002060008473ffffffffffffffffffffffffffffffffffffffff1673ffffffffffffffffffffffffffffffffffffffff16815260200190815260200160002060006101000a81548160ff0219169083151502179055508173ffffffffffffffffffffffffffffffffffffffff168373ffffffffffffffffffffffffffffffffffffffff167f17307eab39ab6107e8899845ad3d59bd9653f200f220920489ca2b5937696c318360405161262d9190613221565b60405180910390a3505050565b6126458484846121cc565b61265184848484612d2a565b612690576040517f08c379a000000000000000000000000000000000000000000000000000000000815260040161268790614995565b60405180910390fd5b50505050565b612732848484846040516024016126b094939291906149b5565b6040516020818303038152906040527ff45d7d2c000000000000000000000000000000000000000000000000000000007bffffffffffffffffffffffffffffffffffffffffffffffffffffffff19166020820180517bffffffffffffffffffffffffffffffffffffffffffffffffffffffff8381831617835250505050612c8b565b50505050565b6127ce8160405160240161274c91906132cc565b6040516020818303038152906040527f41304fac000000000000000000000000000000000000000000000000000000007bffffffffffffffffffffffffffffffffffffffffffffffffffffffff19166020820180517bffffffffffffffffffffffffffffffffffffffffffffffffffffffff8381831617835250505050612c8b565b50565b61286982826040516024016127e7929190614a08565b6040516020818303038152906040527f4b5c4277000000000000000000000000000000000000000000000000000000007bffffffffffffffffffffffffffffffffffffffffffffffffffffffff19166020820180517bffffffffffffffffffffffffffffffffffffffffffffffffffffffff8381831617835250505050612c8b565b5050565b6000600b600081548092919061288290614a3f565b9190505550814233600b5460405160200161289f93929190614af0565b6040516020818303038152906040528051906020012060001c6128c29190614b5c565b9050919050565b606060008203612910576040518060400160405280600181526020017f30000000000000000000000000000000000000000000000000000000000000008152509050612a24565b600082905060005b6000821461294257808061292b90614a3f565b915050600a8261293b9190614b8d565b9150612918565b60008167ffffffffffffffff81111561295e5761295d613609565b5b6040519080825280601f01601f1916602001820160405280156129905781602001600182028036833780820191505090505b5090505b60008514612a1d576001826129a99190613f9c565b9150600a856129b89190614b5c565b60306129c49190614853565b60f81b8183815181106129da576129d9614428565b5b60200101907effffffffffffffffffffffffffffffffffffffffffffffffffffffffffffff1916908160001a905350600a85612a169190614b8d565b9450612994565b8093505050505b919050565b606060008251905060008103612a515760405180602001604052806000815250915050612bbb565b60006003600283612a629190614853565b612a6c9190614b8d565b6004612a789190614bbe565b90506000602082612a899190614853565b67ffffffffffffffff811115612aa257612aa1613609565b5b6040519080825280601f01601f191660200182016040528015612ad45781602001600182028036833780820191505090505b5090506000604051806060016040528060408152602001614eb1604091399050600181016020830160005b86811015612b785760038101905062ffffff818a015116603f8160121c168401518060081b905060ff603f83600c1c1686015116810190508060081b905060ff603f8360061c1686015116810190508060081b905060ff603f831686015116810190508060e01b90508084526004840193505050612aff565b506003860660018114612b925760028114612ba257612bad565b613d3d60f01b6002830352612bad565b603d60f81b60018303525b508484525050819450505050505b919050565b600081600001549050919050565b612be8828260405180602001604052806000815250612eb1565b5050565b612c86838383604051602401612c0493929190614c00565b6040516020818303038152906040527fca47c4eb000000000000000000000000000000000000000000000000000000007bffffffffffffffffffffffffffffffffffffffffffffffffffffffff19166020820180517bffffffffffffffffffffffffffffffffffffffffffffffffffffffff8381831617835250505050612c8b565b505050565b60008151905060006a636f6e736f6c652e6c6f679050602083016000808483855afa5050505050565b60008073ffffffffffffffffffffffffffffffffffffffff166002600084815260200190815260200160002060009054906101000a900473ffffffffffffffffffffffffffffffffffffffff1673ffffffffffffffffffffffffffffffffffffffff1614159050919050565b505050565b505050565b6000612d4b8473ffffffffffffffffffffffffffffffffffffffff16612f0c565b15612ea4578373ffffffffffffffffffffffffffffffffffffffff1663150b7a02612d74612076565b8786866040518563ffffffff1660e01b8152600401612d969493929190614c93565b6020604051808303816000875af1925050508015612dd257506040513d601f19601f82011682018060405250810190612dcf9190614cf4565b60015b612e54573d8060008114612e02576040519150601f19603f3d011682016040523d82523d6000602084013e612e07565b606091505b506000815103612e4c576040517f08c379a0000000000000000000000000000000000000000000000000000000008152600401612e4390614995565b60405180910390fd5b805181602001fd5b63150b7a0260e01b7bffffffffffffffffffffffffffffffffffffffffffffffffffffffff1916817bffffffffffffffffffffffffffffffffffffffffffffffffffffffff191614915050612ea9565b600190505b949350505050565b612ebb8383612f2f565b612ec86000848484612d2a565b612f07576040517f08c379a0000000000000000000000000000000000000000000000000000000008152600401612efe90614995565b60405180910390fd5b505050565b6000808273ffffffffffffffffffffffffffffffffffffffff163b119050919050565b600073ffffffffffffffffffffffffffffffffffffffff168273ffffffffffffffffffffffffffffffffffffffff1603612f9e576040517f08c379a0000000000000000000000000000000000000000000000000000000008152600401612f9590614d6d565b60405180910390fd5b612fa781612cb4565b15612fe7576040517f08c379a0000000000000000000000000000000000000000000000000000000008152600401612fde90614dd9565b60405180910390fd5b612ff360008383612d20565b6001600360008473ffffffffffffffffffffffffffffffffffffffff1673ffffffffffffffffffffffffffffffffffffffff16815260200190815260200160002060008282546130439190614853565b92505081905550816002600083815260200190815260200160002060006101000a81548173ffffffffffffffffffffffffffffffffffffffff021916908373ffffffffffffffffffffffffffffffffffffffff160217905550808273ffffffffffffffffffffffffffffffffffffffff16600073ffffffffffffffffffffffffffffffffffffffff167fddf252ad1be2c89b69c2b068fc378daa952ba7f163c4a11628f55a4df523b3ef60405160405180910390a461310460008383612d25565b5050565b6040518060c001604052806000815260200160608152602001606081526020016000815260200160008152602001600081525090565b6040518060a0016040528060608152602001606081526020016000815260200160008152602001600081525090565b6000604051905090565b600080fd5b600080fd5b60007fffffffff0000000000000000000000000000000000000000000000000000000082169050919050565b6131b681613181565b81146131c157600080fd5b50565b6000813590506131d3816131ad565b92915050565b6000602082840312156131ef576131ee613177565b5b60006131fd848285016131c4565b91505092915050565b60008115159050919050565b61321b81613206565b82525050565b60006020820190506132366000830184613212565b92915050565b600081519050919050565b600082825260208201905092915050565b60005b8381101561327657808201518184015260208101905061325b565b60008484015250505050565b6000601f19601f8301169050919050565b600061329e8261323c565b6132a88185613247565b93506132b8818560208601613258565b6132c181613282565b840191505092915050565b600060208201905081810360008301526132e68184613293565b905092915050565b6000819050919050565b613301816132ee565b811461330c57600080fd5b50565b60008135905061331e816132f8565b92915050565b60006020828403121561333a57613339613177565b5b60006133488482850161330f565b91505092915050565b600073ffffffffffffffffffffffffffffffffffffffff82169050919050565b600061337c82613351565b9050919050565b61338c81613371565b82525050565b60006020820190506133a76000830184613383565b92915050565b6133b681613371565b81146133c157600080fd5b50565b6000813590506133d3816133ad565b92915050565b600080604083850312156133f0576133ef613177565b5b60006133fe858286016133c4565b925050602061340f8582860161330f565b9150509250929050565b60008060006060848603121561343257613431613177565b5b6000613440868287016133c4565b9350506020613451868287016133c4565b92505060406134628682870161330f565b9150509250925092565b613475816132ee565b82525050565b600060a08201905081810360008301526134958188613293565b905081810360208301526134a98187613293565b90506134b8604083018661346c565b6134c5606083018561346c565b6134d2608083018461346c565b9695505050505050565b6000602082840312156134f2576134f1613177565b5b6000613500848285016133c4565b91505092915050565b600060208201905061351e600083018461346c565b92915050565b600060c082019050613539600083018961346c565b818103602083015261354b8188613293565b9050818103604083015261355f8187613293565b905061356e606083018661346c565b61357b608083018561346c565b61358860a083018461346c565b979650505050505050565b61359c81613206565b81146135a757600080fd5b50565b6000813590506135b981613593565b92915050565b600080604083850312156135d6576135d5613177565b5b60006135e4858286016133c4565b92505060206135f5858286016135aa565b9150509250929050565b600080fd5b600080fd5b7f4e487b7100000000000000000000000000000000000000000000000000000000600052604160045260246000fd5b61364182613282565b810181811067ffffffffffffffff821117156136605761365f613609565b5b80604052505050565b600061367361316d565b905061367f8282613638565b919050565b600067ffffffffffffffff82111561369f5761369e613609565b5b6136a882613282565b9050602081019050919050565b82818337600083830152505050565b60006136d76136d284613684565b613669565b9050828152602081018484840111156136f3576136f2613604565b5b6136fe8482856136b5565b509392505050565b600082601f83011261371b5761371a6135ff565b5b813561372b8482602086016136c4565b91505092915050565b6000806000806080858703121561374e5761374d613177565b5b600061375c878288016133c4565b945050602061376d878288016133c4565b935050604061377e8782880161330f565b925050606085013567ffffffffffffffff81111561379f5761379e61317c565b5b6137ab87828801613706565b91505092959194509250565b600081519050919050565b600082825260208201905092915050565b6000819050602082019050919050565b6137ec816132ee565b82525050565b600082825260208201905092915050565b600061380e8261323c565b61381881856137f2565b9350613828818560208601613258565b61383181613282565b840191505092915050565b600060c08301600083015161385460008601826137e3565b506020830151848203602086015261386c8282613803565b915050604083015184820360408601526138868282613803565b915050606083015161389b60608601826137e3565b5060808301516138ae60808601826137e3565b5060a08301516138c160a08601826137e3565b508091505092915050565b60006138d8838361383c565b905092915050565b6000602082019050919050565b60006138f8826137b7565b61390281856137c2565b935083602082028501613914856137d3565b8060005b85811015613950578484038952815161393185826138cc565b945061393c836138e0565b925060208a01995050600181019050613918565b50829750879550505050505092915050565b6000602082019050818103600083015261397c81846138ed565b905092915050565b600060c08301600083015161399c60008601826137e3565b50602083015184820360208601526139b48282613803565b915050604083015184820360408601526139ce8282613803565b91505060608301516139e360608601826137e3565b5060808301516139f660808601826137e3565b5060a0830151613a0960a08601826137e3565b508091505092915050565b60006020820190508181036000830152613a2e8184613984565b905092915050565b600060a0830160008301518482036000860152613a538282613803565b91505060208301518482036020860152613a6d8282613803565b9150506040830151613a8260408601826137e3565b506060830151613a9560608601826137e3565b506080830151613aa860808601826137e3565b508091505092915050565b60006020820190508181036000830152613acd8184613a36565b905092915050565b60008060408385031215613aec57613aeb613177565b5b6000613afa858286016133c4565b9250506020613b0b858286016133c4565b9150509250929050565b7f4e487b7100000000000000000000000000000000000000000000000000000000600052602260045260246000fd5b60006002820490506001821680613b5c57607f821691505b602082108103613b6f57613b6e613b15565b5b50919050565b7f4552433732313a20617070726f76616c20746f2063757272656e74206f776e6560008201527f7200000000000000000000000000000000000000000000000000000000000000602082015250565b6000613bd1602183613247565b9150613bdc82613b75565b604082019050919050565b60006020820190508181036000830152613c0081613bc4565b9050919050565b7f4552433732313a20617070726f76652063616c6c6572206973206e6f7420746f60008201527f6b656e206f776e6572206e6f7220617070726f76656420666f7220616c6c0000602082015250565b6000613c63603e83613247565b9150613c6e82613c07565b604082019050919050565b60006020820190508181036000830152613c9281613c56565b9050919050565b7f4552433732313a2063616c6c6572206973206e6f7420746f6b656e206f776e6560008201527f72206e6f7220617070726f766564000000000000000000000000000000000000602082015250565b6000613cf5602e83613247565b9150613d0082613c99565b604082019050919050565b60006020820190508181036000830152613d2481613ce8565b9050919050565b7f6f6e6c7920746865206f776e65722063616e205265766976652076696c6c616e600082015250565b6000613d61602083613247565b9150613d6c82613d2b565b602082019050919050565b60006020820190508181036000830152613d9081613d54565b9050919050565b7f4552433732313a20696e76616c696420746f6b656e2049440000000000000000600082015250565b6000613dcd601883613247565b9150613dd882613d97565b602082019050919050565b60006020820190508181036000830152613dfc81613dc0565b9050919050565b7f4552433732313a2061646472657373207a65726f206973206e6f74206120766160008201527f6c6964206f776e65720000000000000000000000000000000000000000000000602082015250565b6000613e5f602983613247565b9150613e6a82613e03565b604082019050919050565b60006020820190508181036000830152613e8e81613e52565b9050919050565b7f4572726f723a2063686172617465722068617665206c65737320485000000000600082015250565b6000613ecb601c83613247565b9150613ed682613e95565b602082019050919050565b60006020820190508181036000830152613efa81613ebe565b9050919050565b7f4572726f723a2076696c6c616e2068617665206c657373204850000000000000600082015250565b6000613f37601a83613247565b9150613f4282613f01565b602082019050919050565b60006020820190508181036000830152613f6681613f2a565b9050919050565b7f4e487b7100000000000000000000000000000000000000000000000000000000600052601160045260246000fd5b6000613fa7826132ee565b9150613fb2836132ee565b9250828203905081811115613fca57613fc9613f6d565b5b92915050565b6000606082019050613fe56000830186613383565b613ff2602083018561346c565b613fff604083018461346c565b949350505050565b600081905092915050565b7f7b226e616d65223a202200000000000000000000000000000000000000000000600082015250565b6000614048600a83614007565b915061405382614012565b600a82019050919050565b60006140698261323c565b6140738185614007565b9350614083818560208601613258565b80840191505092915050565b7f202d2d204e465420233a20000000000000000000000000000000000000000000600082015250565b60006140c5600b83614007565b91506140d08261408f565b600b82019050919050565b7f222c20226465736372697074696f6e223a20225468697320697320616e204e4660008201527f542074686174206c6574732070656f706c6520706c617920696e20746865206760208201527f616d65204d657461766572736520536c6179657221222c2022696d616765223a60408201527f2022697066733a2f2f0000000000000000000000000000000000000000000000606082015250565b6000614183606983614007565b915061418e826140db565b606982019050919050565b7f222c202261747472696275746573223a205b207b202274726169745f7479706560008201527f223a20224865616c746820506f696e7473222c202276616c7565223a20000000602082015250565b60006141f5603d83614007565b915061420082614199565b603d82019050919050565b7f2c20226d61785f76616c7565223a000000000000000000000000000000000000600082015250565b6000614241600e83614007565b915061424c8261420b565b600e82019050919050565b7f7d2c207b202274726169745f74797065223a202241747461636b2044616d616760008201527f65222c202276616c7565223a2000000000000000000000000000000000000000602082015250565b60006142b3602d83614007565b91506142be82614257565b602d82019050919050565b7f7d205d7d00000000000000000000000000000000000000000000000000000000600082015250565b60006142ff600483614007565b915061430a826142c9565b600482019050919050565b60006143208261403b565b915061432c828961405e565b9150614337826140b8565b9150614343828861405e565b915061434e82614176565b915061435a828761405e565b9150614365826141e8565b9150614371828661405e565b915061437c82614234565b9150614388828561405e565b9150614393826142a6565b915061439f828461405e565b91506143aa826142f2565b9150819050979650505050505050565b7f646174613a6170706c69636174696f6e2f6a736f6e3b6261736536342c000000600082015250565b60006143f0601d83614007565b91506143fb826143ba565b601d82019050919050565b6000614411826143e3565b915061441d828461405e565b915081905092915050565b7f4e487b7100000000000000000000000000000000000000000000000000000000600052603260045260246000fd5b60008190508160005260206000209050919050565b60006020601f8301049050919050565b600082821b905092915050565b6000600883026144b97fffffffffffffffffffffffffffffffffffffffffffffffffffffffffffffffff8261447c565b6144c3868361447c565b95508019841693508086168417925050509392505050565b6000819050919050565b60006145006144fb6144f6846132ee565b6144db565b6132ee565b9050919050565b6000819050919050565b61451a836144e5565b61452e61452682614507565b848454614489565b825550505050565b600090565b614543614536565b61454e818484614511565b505050565b5b818110156145725761456760008261453b565b600181019050614554565b5050565b601f8211156145b75761458881614457565b6145918461446c565b810160208510156145a0578190505b6145b46145ac8561446c565b830182614553565b50505b505050565b600082821c905092915050565b60006145da600019846008026145bc565b1980831691505092915050565b60006145f383836145c9565b9150826002028217905092915050565b61460c8261323c565b67ffffffffffffffff81111561462557614624613609565b5b61462f8254613b44565b61463a828285614576565b600060209050601f83116001811461466d576000841561465b578287015190505b61466585826145e7565b8655506146cd565b601f19841661467b86614457565b60005b828110156146a35784890151825560018201915060208501945060208101905061467e565b868310156146c057848901516146bc601f8916826145c9565b8355505b6001600288020188555050505b505050505050565b600060808201905081810360008301526146ef8187613293565b905081810360208301526147038186613293565b9050614712604083018561346c565b81810360608301526147248184613293565b905095945050505050565b7f4552433732313a207472616e736665722066726f6d20696e636f72726563742060008201527f6f776e6572000000000000000000000000000000000000000000000000000000602082015250565b600061478b602583613247565b91506147968261472f565b604082019050919050565b600060208201905081810360008301526147ba8161477e565b9050919050565b7f4552433732313a207472616e7366657220746f20746865207a65726f2061646460008201527f7265737300000000000000000000000000000000000000000000000000000000602082015250565b600061481d602483613247565b9150614828826147c1565b604082019050919050565b6000602082019050818103600083015261484c81614810565b9050919050565b600061485e826132ee565b9150614869836132ee565b925082820190508082111561488157614880613f6d565b5b92915050565b600060408201905081810360008301526148a18185613293565b90506148b0602083018461346c565b9392505050565b7f4552433732313a20617070726f766520746f2063616c6c657200000000000000600082015250565b60006148ed601983613247565b91506148f8826148b7565b602082019050919050565b6000602082019050818103600083015261491c816148e0565b9050919050565b7f4552433732313a207472616e7366657220746f206e6f6e20455243373231526560008201527f63656976657220696d706c656d656e7465720000000000000000000000000000602082015250565b600061497f603283613247565b915061498a82614923565b604082019050919050565b600060208201905081810360008301526149ae81614972565b9050919050565b600060808201905081810360008301526149cf8187613293565b905081810360208301526149e38186613293565b90506149f2604083018561346c565b6149ff606083018461346c565b95945050505050565b60006040820190508181036000830152614a228185613293565b90508181036020830152614a368184613293565b90509392505050565b6000614a4a826132ee565b91507fffffffffffffffffffffffffffffffffffffffffffffffffffffffffffffffff8203614a7c57614a7b613f6d565b5b600182019050919050565b6000819050919050565b614aa2614a9d826132ee565b614a87565b82525050565b60008160601b9050919050565b6000614ac082614aa8565b9050919050565b6000614ad282614ab5565b9050919050565b614aea614ae582613371565b614ac7565b82525050565b6000614afc8286614a91565b602082019150614b0c8285614ad9565b601482019150614b1c8284614a91565b602082019150819050949350505050565b7f4e487b7100000000000000000000000000000000000000000000000000000000600052601260045260246000fd5b6000614b67826132ee565b9150614b72836132ee565b925082614b8257614b81614b2d565b5b828206905092915050565b6000614b98826132ee565b9150614ba3836132ee565b925082614bb357614bb2614b2d565b5b828204905092915050565b6000614bc9826132ee565b9150614bd4836132ee565b9250828202614be2816132ee565b91508282048414831517614bf957614bf8613f6d565b5b5092915050565b60006060820190508181036000830152614c1a8186613293565b9050614c29602083018561346c565b614c36604083018461346c565b949350505050565b600081519050919050565b600082825260208201905092915050565b6000614c6582614c3e565b614c6f8185614c49565b9350614c7f818560208601613258565b614c8881613282565b840191505092915050565b6000608082019050614ca86000830187613383565b614cb56020830186613383565b614cc2604083018561346c565b8181036060830152614cd48184614c5a565b905095945050505050565b600081519050614cee816131ad565b92915050565b600060208284031215614d0a57614d09613177565b5b6000614d1884828501614cdf565b91505092915050565b7f4552433732313a206d696e7420746f20746865207a65726f2061646472657373600082015250565b6000614d57602083613247565b9150614d6282614d21565b602082019050919050565b60006020820190508181036000830152614d8681614d4a565b9050919050565b7f4552433732313a20746f6b656e20616c7265616479206d696e74656400000000600082015250565b6000614dc3601c83613247565b9150614dce82614d8d565b602082019050919050565b60006020820190508181036000830152614df281614db6565b905091905056fe506c617965722061747461636b65642076696c6c616e2e20557064617465642056696c6c616e2068703a2025734d696e746564204e465420772f20746f6b656e496420257320616e6420636861726174657220257356696c6c616e2061747461636b656420706c617965722e205570646174656420706c617965722068703a2025730a506c617965722061626f757420746f2061747461636b202d206e616d65203a2025732c206870203a2025732c204144203a2025734142434445464748494a4b4c4d4e4f505152535455565758595a6162636465666768696a6b6c6d6e6f707172737475767778797a303132333435363738392b2fa2646970667358221220c966d57b95b2c6f1d103a742a2dd23e4abdcea1da7f086fd76179c05b73c269464736f6c63430008110033496e697469616c697365642056696c6c616e2025732077697468206870203a2025732c20696d67203a202573",
	"linkReferences": {},
	"deployedLinkReferences": {}
}